:100000008031022887319F2F71082700BB007008BC
:10001000BA0008002100C3170E30B8009930B700AD
:10002000B901370886003808870081010130B70719
:100030000030B83D0130B6003608B9070330390248
:10004000031C2328242811282030F0000030F10060
:100050000030F200F3004030F4000030F5009F3132
:10006000AB2780313D000E172100BA013A08B03E9F
:1000700086000330870081013A08AC3E86000330D9
:10008000870081010130B6003608BA0704303A0211
:10009000031C4B284C283628B530F0000130F10005
:1000A0000030F200F3000130F4000030F5009F3121
:1000B000AB2780313D000E1328302600A000003011
:1000C000A10020302100C9004908C600C701200056
:1000D00062082300B6003608031D6F2870287428B4
:1000E00010302100CA00872801302100B000003004
:1000F000B100B630B2000130B3000130B4000030BE
:10010000B50092317922803120302100CA000800E8
:10011000FD0021002108220403198F289028562968
:1001200004302002031C9528962898280330A0004C
:1001300064307D02031C9D289E28D5286430F00081
:100140000030F1007D08A300A4012308F200240878
:10015000F3008831022080317008303E2100A50074
:100160002108860022088700250881000130A107A8
:100170000030A23D6430F9007D08A300A4012308EB
:10018000F2002408F3006430F0000030F100883100
:100190000220803170089F31182780312100A5008E
:1001A0002508FD020330A000E52803302002031CCF
:1001B000DA28DB28E528210886002208870030306D
:1001C00081000130A1070030A23D0A307D02031CEE
:1001D000EA28EB2822290A30F0000030F1007D08DF
:1001E000A300A4012308F2002408F30088310220B0
:1001F00080317008303E2100A500210886002208C9
:100200008700250881000130A1070030A23D0A3097
:10021000F9007D08A300A4012308F2002408F300DC
:100220000A30F0000030F10088310220803170087F
:100230009F31182780312100A5002508FD020230DA
:10024000A000322902302002031C27292829322944
:100250002108860022088700303081000130A10784
:100260000030A23D7D0803193629372945297D082C
:10027000303EA30021088600220887002308810061
:100280000130A1070030A23D512920080319492956
:100290004A29512921088600220887003030810030
:1002A0004029210886002208870081012108A0003A
:1002B0002208A10008002000911C5F2960297429F0
:1002C0009110260052080319662967296A2901300E
:1002D000D2026B293116530803196F29702973292B
:1002E0000130D3027429B116203021004A02031CC8
:1002F0007A297B2980293D008E1C7F298029A42909
:100300002600D201D301B11631162100C801260002
:10031000D5012000911E8D298E29492A23009D1C7C
:100320009229932995291D121D1621004808703E17
:10033000A800A9012330A93D2808860029088700C4
:10034000230019088100492A2000911EA829A92903
:10035000D92923009D1CAD29AE29B0291D121D16D7
:1003600026006F080319B529B629D5298030210048
:1003700048020318BC29BD29D5294808703EA800A9
:10038000A9012330A93D28088600290887002300F9
:100390001908810001302100A8002808C80705308D
:1003A0002600D20032123112D92923001908260062
:1003B000CF00210048080319DE29DF29EF294B0867
:1003C000031DE329E429EF297030F0002330F10008
:1003D0004808F2009F312D2781312100C8012600F5
:1003E0005508031DF429F529FE294030FB00A030F3
:1003F0009431A52481312600D500D4016F0803195A
:10040000022A032A232A2000111E072A082A492A21
:100410002600550803190D2A0E2A492A5408A03E21
:10042000860004308700010823009A000130210073
:10043000A80028082600D4070130D502B212B11254
:100440000530D300492AB116B11650080319292ADC
:100450002A2A492A21004808031D2F2A302A492A1E
:100460004B08031D342A352A492A7030A600233050
:10047000A7008931562181317030F0002330F1001E
:100480009F315B27813170082100C80001302600B0
:10049000D00208002000111C4E2A4F2A542A18109E
:1004A00011109E31C6268231203021004A020318E5
:1004B0005A2A5B2A722A2600CE015603031D612A9E
:1004C000622A692A153020009700A030960011108A
:1004D00018142600B901BA01FF30EB000030EC001F
:1004E000CD014B2B26004E080319772A782A482B7A
:1004F0003D083E0403197D2A7E2A862A3D0886008F
:100500003E088700811B852A862AAA2A2030F0000F
:100510000430F1005230F2002130F3004030F4009A
:100520000030F50091319C2182312600B901BA01D9
:10053000EB01EC01F0015230F1002130F2004030CB
:10054000F30003308A315122823171082600BE0047
:100550007008BD0039083A040319AF2AB02AC12A2D
:100560000B1DB32AB42A232B0B1145302100BB00ED
:100570003B082000950701302600B9020030BA3B45
:10058000232B10306B066C04031DC72AC82A1A2BB4
:10059000CD01CD0A0130EB070030EC3D232B6B0879
:1005A0002100BB000130BB35FF3E031DD32A3B3584
:1005B000203E860004308700403FAF00413FB0003E
:1005C000423FB100433FB2008531DE258231260033
:1005D0006C082100BD0026006B082100BC00BC3562
:1005E000BD0DBC35BD0D1230BE002130BF003C0832
:1005F0003E0786003D083F3D87002F08C03F30087A
:10060000C13F3108C23F3208C33F260039083A04CF
:1006100003190B2B0C2B162B4530200095000B11CA
:1006200001302600EB070030EC3D232B0130EB07B7
:100630000030EC3D00306C02103003196B02031CDB
:10064000222B232BCF2A4D080319272B282B4B2B8A
:100650003B083C0403192D2B2E2B362B3B08860020
:100660003C088700811B352B362B4B2BF001F00A01
:100670001230F1002130F2004030F30003308A31B3
:100680005122823171082600BC007008BB00702A1C
:100690009031B0208231080021004A08031D512BFF
:1006A000522B642B3D008E019201163091009F3039
:1006B00097007B3092005D2B8E158E1D602B612B79
:1006C0005C2B2100CA01CA0A4A03031D682B692B4F
:1006D000752B3D008E1A6D2B6E2B752B90019201A0
:1006E0001214121602302100CA003D00101D792B91
:1006F0007A2B872B121D7D2B7E2B872BFB30210025
:10070000BF003F083D00900590314B2083313D00F4
:100710008E1C8B2B8C2B8F2B20001211782C101CF5
:10072000922B932BA22B121C962B972BA22B8D3145
:10073000C725833104302100CA00FE30BF003F08C6
:100740003D009005101EA52BA62BAD2B121EA92B2C
:10075000AA2BAD2B9F31C72783313D00101FB12B32
:10076000B22BDE2B121FB52BB62BC52B73302100FD
:10077000B0000030B1000030B200B3000130B4006E
:100780000030B500923179228331BF302100BF00A3
:100790003F083D0090059F317427833126005E0895
:1007A0000319D32BD42BD62B0130DE025E08031D98
:1007B000DA2BDB2BDE2B8831DA2083313D00901ED3
:1007C000E22BE32BEA2B921EE62BE72BEA2B91314F
:1007D000F02183313D00901CEE2BEF2B042C921C5A
:1007E000F22BF32B042CFF302100B0007F30B1003E
:1007F0000030B200B3000130B4000030B5009231D7
:10080000792283313D009301043021004A0203180C
:100810000A2C0B2C0E2C20001211782C3D00921D5E
:10082000122C132C762C2100C0013D00901D192C98
:100830001A2C762C0F082100CC004C0CBF00BF0CEA
:100840003F0C0F392600E000F7302100BF003F08C1
:100850003D00900521004C192E2C2F2C412C2600F8
:100860006008AC3E86000330870001080139210092
:10087000BF000130BF0601083F06FE393F06810078
:10088000522C26006008B03E860003308700010825
:1008900001392100BF000130BF0601083F06FE39C3
:1008A0003F06810026006008031D572C582C5C2C45
:1008B0009431542483316B2C72302100B00000300D
:1008C000B100CC30B2000030B3000030B400B5004D
:1008D00092317922833101302100BF003F08C007E7
:1008E00004304002031C752C762C152C20001211AC
:1008F000080020006203031D7E2C7F2C952C6008CD
:100900001F39003A031D852C862C952C2100C31716
:10091000033020006106031D8E2C8F2C932C2600A3
:10092000E201E20A952C2600E20120006208031D84
:100930009A2C9B2CDD2D60081F39023A031DA12C37
:10094000A22CDD2D64080F39003A0319A82CA92C1C
:10095000DD2D64080F392100B6000430360203187B
:10096000B22CB32CDD2D20304A06031DB82CB92C37
:10097000DD2DC3172000E41BBE2CBF2CD62C640831
:100980000F390907A03E860003308700403F210051
:10099000BB00413FBC00200064080F39AC3E86001C
:1009A0000330870001082100BA00EC2C64080F39DD
:1009B0000907203E860003308700403F2100BB002E
:1009C000413FBC00200064080F39B03E8600033070
:1009D000870001082100BA003A18EF2CF02CFB2CFC
:1009E000FB30B600FF30B7003B083605BB003C08C3
:1009F0003705BC00012D04303B04BB0000303C0433
:100A0000BC002000E41B052D062D132D64080F39B2
:100A10000907A03E86000330870021003B08C03F45
:100A20003C08C13F1F2D64080F390907203E86008E
:100A30000330870021003B08C03F3C08C13F033022
:100A400020006106031D252D262D4F2D21003B087A
:100A500086003C088700811F2E2D2F2D432D20005E
:100A6000E41B332D342D3C2D64080F39AC3E860039
:100A7000033087008114432D64080F39B03E86008F
:100A800003308700811421003B0886003C08870062
:100A900001153B0886003C0887008117DD2D0430D6
:100AA00021003B06BB0000303C06BC003B08860032
:100AB0003C088700811F5D2D5E2D7B2D7F30B600A9
:100AC0003B0886003C088700360881053B08860005
:100AD0003C08870001170530B0000030B1003C0829
:100AE000B3003B08B2000230B4000030B5009231D0
:100AF00079228431802D3B0886003C08870001174D
:100B0000043021003B06BB0000303C06BC00BA1894
:100B10008A2D8B2D932D3B0886003C088700811F72
:100B2000922D932DC02D2000E41B972D982DA02DE4
:100B300064080F39AC3E8600033087008110A72D72
:100B400064080F39B03E86000330870081103B30C7
:100B50002100B6003B0886003C0887003608810566
:100B60000530B0000030B1003C08B3003B08B200D3
:100B70000230B4000030B500923179228431C82DA2
:100B80003B30B6003B0886003C08870036088105EC
:100B9000200064080F39983E2100B600B7010E30DE
:100BA000B73D3608B8003708B900FE30B60038083F
:100BB00086003908870036088105080021002F08C3
:100BC00023003706031DE52DE62D8C2F5F2F003007
:100BD0003202023003193102031CEF2DF02D9E2F3B
:100BE000043032028130031931020318F82DF92D37
:100BF0009E2F3108F0003208F100F2016430F3005A
:100C00000030F4000030F500913172218531700818
:100C10002100A6007108A7007208A80093316E2376
:100C200085319E2F01303202003003193102031842
:100C30001A2E1B2E1E2E31082300B7002300370862
:100C40002100B300B4013308B1003408B2009E2F74
:100C5000003032020930031931020318302E312ED0
:100C6000342E31082600EE0026006E082100B30065
:100C7000B4013308B1003408B2009E2F00303202B4
:100C80001930031931020318462E472E4A2E310817
:100C90002600ED0026006D082100B300B4013308E2
:100CA000B1003408B2009E2F3103FE300319320622
:100CB00003195B2E5D2E01305E2E003095314B25E1
:100CC00085319E2F9E31C62685319E2F3208B60073
:100CD0003108B500732E0430890B6C2E01302100D1
:100CE000B5020030B63B35083604031D782E792E48
:100CF0006B2E9E2F31089031F9208531210031086B
:100D0000AF009231B122853170082100B000710826
:100D1000B1007208B2009E2F9331B72385312100B4
:100D20002008B0002108B1002208B2009E2F31082F
:100D30003204031D9C2E9E2E01309F2E0030260073
:100D4000EF006F082100B300B4013308B10034088C
:100D5000B2009E2F31089F318F2785312100B200CC
:100D60009E2FCF302600AF00E030B4002100B11B31
:100D7000BA2EBC2E0130BD2E0030B300B30EB30D21
:100D80002600330821003306DF3933062600B3007E
:100D90002100311BCC2ECE2E0130CF2E0030B300DF
:100DA000B30E2600330821003306EF393306260040
:100DB000B3002100310830390319DF2EE02EEA2E6E
:100DC0002600EF0123009D1330302100B3003308CB
:100DD000B104F12E0E128E1623009D172600EF018E
:100DE000EF0A210031083F392600B8002100B21B6C
:100DF000FA2EFC2E0130FD2E0030B300B30EB30DE1
:100E00002600300821003306DF3933062600B00003
:100E10002100321B0C2F0E2F01300F2F0030B3009A
:100E2000B30E2600300821003306EF3933062600C2
:100E3000B0003F302100B30033082600B505210083
:100E400032083F39B30033082600B5049F31E32749
:100E5000853120000E083F392100B20020008C1A95
:100E6000322F332F372F2100B701B8013C2F8030AC
:100E70002100B7000030B8003708B3003308B204CF
:100E800020000C1A442F452F492F2100B901BA0127
:100E90004E2F40302100B9000030BA003908B300AD
:100EA0003308B2049E2F32082600BA002100310810
:100EB0002600B9009E2FB001B101B2019E2F210082
:100EC0003008003A03199E2F013A0319E72D033A1F
:100ED0000319122E013A0319282E073A03193E2E40
:100EE000013A0319542E033A0319622E013A0319E9
:100EF000662E0F3A03197A2E013A03198C2E033A03
:100F00000319972E013A0319AA2E073A0319B12E95
:100F1000013A0319532F5B2F21002F089031F9203C
:100F200085310130AF3E86008701403FF000413FF0
:100F3000F100423FF2009131212185310800230068
:100F4000883101208731B700A03084009E308500B1
:100F500026001200EB001200EC001200ED0012005F
:100F6000EE001200EF0070308400233085008030E6
:100F7000FE000030FF00903100208731C130840036
:100F8000003085000C30FE000030FF009031002062
:100F900087312300B001B101B201B301B401B50141
:100FA000B60120308400033085004B30FE00003055
:100FB000FF00903100208731A0308400033085008D
:100FC0003530FE000030FF009031002087312030A6
:100FD0008400043085004030FE000030FF00903176
:100FE00000208731A0308400043085004030FE00AE
:100FF0000030FF00903100208731200090312B28F5
:10100200FF34F601F11F062807280E28F009F1091E
:10101200F00A0319F10AF601F60AF31F1128122841
:101022001B28F209F309F20A0319F30A0130F4004A
:101032007408F606F701F8017008710403192228F2
:1010420023285228F501F50A2F280130F035F10D39
:10105200890B27280130F4007408F507F11F3228A4
:10106200332826280130F735F80D890B342871080A
:101072007302031D3E2870087202031C4128422895
:1010820047287008F2027108F33B77140130F136F9
:10109200F00C890B48280130F502031D5128522813
:1010A200332876080319562857285C28F709F809C7
:1010B200F70A0319F80A7808F1007708F000080027
:1010C200803020006006031D67286828D928C030B8
:1010D2002100C300CD2809302100C1009930C2008F
:1010E2001230C4000030C500D9286208031D7A28D6
:1010F2007B28A7286208F000F101F035F10D3230AB
:10110200700784001930713D80388500003F21004E
:10111200C100013FC2004208F1004108F000023064
:101122007007840071080318710A85000008C40062
:101132004208F1004108F000033070078400710892
:101142000318710A85000008C500D9282100C301CF
:10115200D928033062020318AF28B028A7286208F2
:10116200F000F101F035F10D2930700784001930DB
:10117200713D80388500003F2100C100013FC2005F
:1011820041088400420885000008F000F10170085F
:10119200C4007108C500D92820006308013A031968
:1011A2006C28033A03197628013A0319AA28A728BA
:1011B200080026005D08031DDF28E02855290130BC
:1011C200DD005C08031DE628E72855290130DC0014
:1011D200023023003106031DEF28F02803292600E0
:1011E20020088600210887004131810120088600FD
:1011F20021088700483081002008860021088700E6
:10120200811755293103031D07290829552926006D
:10121200DF012100490A8600870108308100603021
:10122200F0000030F100FF307005F2007F307105F0
:10123200F3004908023E860087017208C03F730826
:10124200C13F4908860087010430810049088600B1
:10125200870181172600DF01DF0A21004608013ECF
:10126200F0000030473DF1007008860071088700E9
:10127200083081006030F0000030F100FF3070056E
:10128200F2007F307105F3004608860047088700A8
:1012920042317208C03F7308C13F460886004708C2
:1012A2008700803081005529080021002708F100BD
:1012B2002608F000A330F2009830F30090318E201F
:1012C200893121002708F1002608F0009F315B27B1
:1012D200893170082100A6077108A73D26088600FB
:1012E20027088700303081000130A6070030A73D73
:1012F2002608860027088700313081000130A607C2
:101302000030A73D26088600270887002E3081007E
:101312000130A6070030A73D26088600270887006F
:10132200323081000130A6070030A73D2608860032
:1013320027088700303081000130A6070030A73D22
:101342002708F1002608F0001B30F2009930F30064
:1013520090318E2089312100A001A00A2708F100D6
:101362002608F0009F315B2789317008210026078B
:10137200A1007108273DA200230037088031882090
:10138200893121002108A7002008A6002708F100C2
:101392002608F0002F30F2009930F30090318E20B1
:1013A20089310800200062082100AF00A230B0009D
:1013B2002F08031DDD29DE29E4292500220821004A
:1013C200AF00A330B0003008B100422A30088600D6
:1013D2000230870001082300B700502A3108860036
:1013E20002308700403FFA00413FFB0000307B02A1
:1013F200023003197A02031CFF29002A502A3108FD
:10140200860002308700403FFA00413FFB00043073
:101412007B02813003197A020318102A112A502AFA
:101422003108860002308700403FF000413FF10062
:101432006430F2000030F30090310C2089317008E2
:101442002100A6007108A700A80193316E238931FB
:10145200502A310886000230870016000104031D5D
:10146200332A352A0130362A00302600EF00502A6E
:10147200300886000230870001089F318F278931AA
:10148200502A2F08013A0319EF29033A0319E729D1
:10149200083A03192A2A013A0319392A502A08005C
:1014A200F80070080319562A572A612A7835203E17
:1014B200860003308700403FF900413FFA006A2A64
:1014C2007835A03E860003308700403FF900413F57
:1014D200FA0079087A04031D6F2A702A732AF00130
:1014E200F101DA2AFF307105F4007F307205F50050
:1014F200790886007A08870042317408C03F75086F
:10150200C13F7908013EF40000307A3DF5007408CD
:10151200860075088700730881004030F40079085E
:1015220086007A08870074088105790886007A089F
:1015320087008115790886007A088700811770086C
:101542000319A42AA52ABE2A7835203E8600033034
:101552008700403FF400413FF50004307406F60076
:1015620000307506F7007835203E8600033087008C
:101572007608C03F7708C13FD62A7835A03E86005C
:1015820003308700403FF400413FF5000430740609
:10159200F60000307506F7007835A03E860003306D
:1015A20087007608C03F7708C13F7A08F1007908C2
:1015B200F0000800200060081F39013A0319E22AEE
:1015C200E32AE42A662B600E890C0339013A0319D7
:1015D200EB2AEC2AED2A662B64080319F12AF22A77
:1015E200552B64030319F62AF72A552B662BC630AE
:1015F2002100C1000330C2000830C4000030C50021
:1016020043142100C317662BC6302100C1000330EA
:10161200C200022B67082600AC00200066082600E4
:10162200AB00BC30A8000330A9001B30AD00123063
:10163200AE00AA17662BCE302100C1000330C200D3
:101642000730C4000030C500C130C300662B6208F9
:101652002600E700671C2E2B2F2B3F2B6508031D4E
:10166200332B342B3B2B20001810111022008E102C
:1016720021008E102600E501E50A022B65080319F8
:10168200432B442B522B20001810111022008E10D5
:1016920021008E10153020009700A0309600111006
:1016A20018142600E501022B6108003A0319F82AF2
:1016B200013A0319052B213A03190B2B013A03199D
:1016C2001C2B033A0319282B662B08002100A101C9
:1016D200F31F6C2B6D2B7A2BF009F109F209F30938
:1016E200F00A0319F10A0319F20A0319F30AA10114
:1016F200A10AF71F7D2B7E2B8D2BF409F509F60924
:10170200F709F40A0319F50A0319F60A0319F70A85
:101712000130F8007808A1060030A5000030A400CE
:101722000030A3000030A200730872047104700438
:1017320003199C2B9D2BDE2BA001A00AAB2B0130A1
:10174200F035F10DF20DF30D890BA12B0130F800EC
:101752007808A007F31FAE2BAF2BA02B0130A235C8
:10176200A30DA40DA50D890BB02B73087702031DE1
:10177200C42B72087602031DC42B71087502031D67
:10178200C42B70087402031CC72BC82BD12B700802
:10179200F4027108F53B7208F63B7308F73B22141A
:1017A2000130F336F20CF10CF00C890BD22B013024
:1017B200A002031DDD2BDE2BAF2B21080319E22B28
:1017C200E32BEE2BA209A309A409A509A20A031976
:1017D200A30A0319A40A0319A50A2508F300240879
:1017E200F2002308F1002208F00008002600200879
:1017F2008600210887000030011B0130FC00043004
:101802002006A00000302106A100083021004A066F
:10181200031D0C2C0D2C1E2C200062087F393D006C
:10182200960016080319162C172C1B2C10302100B9
:10183200CA001E2C04302100CA0023003103031DFC
:10184200232C242C6D2C68302100B2000030B30010
:10185200FF303205B4007F303305B5002600200882
:10186200860021088700423121003408C03F350834
:10187200C13F97318D278B31023026006406031D4C
:10188200432C442C502C2008860021088700043069
:10189200810020088600210887008117862C7C0899
:1018A200031D542C552C612C20088600210887002A
:1018B2004830810020088600210887008117862C85
:1018C2002008860021088700083081002008860051
:1018D200210887008117862C2600AA1F712C722CE2
:1018E200842C2D082E040319772C782C822C053099
:1018F200283E860003308700413F8A00403F0A00AD
:101902008C312600AA132300B101080020006008D0
:101912001F39013A03198E2C8F2C902C1B2D02306B
:1019220064060319952C962C972C1B2D0630610604
:10193200031D9C2C9D2CCD2CC22C23003603031D91
:10194200A32CA42CCD2C4C302100C1009830C20015
:101952000930C4000030C500C030C300CD2C2300C4
:101962003603031DB52CB62CCD2CC6302100C10088
:101972009830C2002530C4000030C500C030C3001A
:10198200CD2C6308213A03199E2C033A0319B02C7B
:10199200013A0319CD2CCD2C2000600E890C03399D
:1019A200013A0319D52CD62C072D1B2D9531A225D2
:1019B2008C311B2D9131C6218C311B2D6A302100B7
:1019C200C1000330C2000130C4000030C500C13084
:1019D200C3001B2D80302100C300200063082600B5
:1019E200EA001B2D69302100C1000330C200013022
:1019F200C4000030C5008130C3001B2D803021009F
:101A0200C300200062082600E9001B2D6108013A8C
:101A12000319D72C033A0319DF2C013A0319F32CCB
:101A22000A3A0319DB2C033A0319EB2C013A031986
:101A3200FF2C1B2D08003D000E122100C31B222D7E
:101A4200232D702D2600AA1F272D282D382D023078
:101A52002300B10026005A08031D302D312D342DEC
:101A620097311F278D312600DC01DD01C62D2100B3
:101A72004608013EF7000030473DF800770886002F
:101A820078088700083081006030F7000030F800E5
:101A9200FF307705F9007F307805FA0046088600A6
:101AA2004708870042317908C03F7A08C13F46089B
:101AB2008600470887000C308100460886004708E8
:101AC200870081172600200886002108870004303D
:101AD200810020088600210887008117C62D20007A
:101AE200E01F742D752D8E2D2300B101B10A260041
:101AF2005B08031D7D2D7E2D812D97311F278D3192
:101B02002600DC01DD0123003008031D892D8A2D0A
:101B1200C62D8831DA208D31C62D02302300B10066
:101B220021004608013EF7000030473DF8007708E3
:101B3200860078088700083081006030F7000030A6
:101B4200F800FF307705F9007F307805FA00460883
:101B520086004708870042317908C03F7A08C13FB2
:101B62004608860047088700043081004608860040
:101B72004708870081172600DC01DD0123003008B9
:101B8200031DC42DC52DC62D8A2D0800210012115A
:101B92003D009301900198010E30F5009930F40058
:101BA200F601740886007508870081010130F40788
:101BB2000030F53D0130F0007008F6070330760280
:101BC200031CE42DE52DD22D16303D0091009F30EF
:101BD20097007B309200F7017708F0000130F03572
:101BE200FF3E031DF02D7035203E86008701003038
:101BF200C03F0030C13FC23FC33F0130F000700818
:101C0200F70710307702031C072E082EED2D3D003A
:101C12000E1796010E120E13F730F00070089005A1
:101C22002100C3012600AA01AB01AC013D009019BD
:101C32001B2E1C2E0D2E01302600DD000130DC0093
:101C4200DB01DA01E101F7017735203E860003303E
:101C520087000030C03FC13F7735A03E8600033089
:101C620087000030C03FC13F7708B03E8600033096
:101C7200870081017708AC3E86000330870081012E
:101C82000130F0007008F70704307702031C4A2E77
:101C92004B2E252E28302600A0000030A100163041
:101CA2003D0098006030F0000030F100FF30700518
:101CB200F2007F307105F30072082000A200730861
:101CC200A3000830A1000430A000A0172300B60131
:101CD20000302700AB000030AA000030A90000301D
:101CE200A8002600D9012100CA010800923147222A
:101CF2008E312600450846040319802E812E8A2E35
:101D02004508860046088700811F882E892E8A2E64
:101D12002D2F033021004B06031D902E912E922E63
:101D2200CB014B08031D962E972E982E2D2F023095
:101D32004B06031D9D2E9E2EB12EF001F00A00309F
:101D4200F100F200F30102308A3151228E31710822
:101D52002600C6007008C50003302100CB002D2FDD
:101D62004B03031DB52EB62E2D2F41302300330217
:101D7200031CBC2EBD2EC02E4030FD00C22E3308E7
:101D8200FD007D083302B30020302600CA008030F7
:101D9200C9007D08FC006808031DD02ED12E042F37
:101DA200E82E4B0886004C0887000108FB00490812
:101DB20086004A0887007B0881000130C90700308D
:101DC200CA3D0130CB070030CC3D0130FC027C081B
:101DD200031DEC2EED2ED22E092F4B0886004C0847
:101DE20087000108FB00490886004A0887007B0833
:101DF20081000130C9070030CA3D0130CB070030F5
:101E0200CC3D0130FC027C08031D082F092FEE2E69
:101E120023003308031D0E2F0F2F1C2F40307D0689
:101E2200031D142F152F192F02302100CB001C2F58
:101E320003302100CB00F001F00A8030F1002030A5
:101E4200F2007D08F30002308A3151228E3171088E
:101E52002600C6007008C500080021004908860057
:101E62008701413FFD007D08B200B301330826001F
:101E72002C02031D402F2100320826002B020318DA
:101E8200432F442F462F2B08FD007D082100B2006E
:101E9200B30132082600AB02210033082600AC3B16
:101EA200FC016C2F7C08683E860087010108210036
:101EB200B20026002808860029088700210032087F
:101EC200810001302600A8070030A93D0130210021
:101ED200B2003208FC077D087C02031C712F722FAE
:101EE200532F26002B082C040319782F792FB82F93
:101EF20021004608013EB2000030473DB3003208DF
:101F0200860033088700083081006830B200003054
:101F1200B300FF303205B4007F303305B500460808
:101F220086004708870042313408C03F3508C13F68
:101F3200490886008701011B9F2FA02FAC2F46085E
:101F42008600470887004830810046088600470817
:101F520087008117FF2F4608860047088700083050
:101F6200810046088600470887008117FF2F21005D
:101F72004608013EB2000030473DB30032088600F9
:101F820033088700083081006030B2000030B300AF
:101F9200FF303205B4007F303305B50046088600B5
:101FA2004708870042313408C03F3508C13F460820
:101FB20086004708870004308100460886004708EB
:101FC2008700811726002D082E040319E92FEA2F16
:101FD200F42F0530283E860003308700413F8A00F7
:101FE200403F0A008F312600AA1323003008031D48
:101FF200FB2FFC2FFF2F8831DA208F31080064007D
:10200200800101310130FE020030FF3B7F087E0477
:10201200031D01280034F401F501701C1128122857
:1020220016287208F4077308F53D0130F235F30DF6
:10203200890B17280130F136F00C890B1C28700827
:102042007104031D252826280E287508F10074083E
:10205200F00008009F31422790319131492190319F
:102062002600B801B301153020009700A030960079
:1020720011101814640083314C23903181315B219B
:10208200903182314A2290318E31772690313B282D
:10209200803102282600E10174302100B0000030B6
:1020A200B1000030B200B3000030B400B50092318C
:1020B200792290313D008E1012116528FB302100EB
:1020C200B60036083D0090051019682869285F2877
:1020D2002600D9010800083023009F0090309D009F
:1020E20024309E0067309B009C010030F0000030DD
:1020F200F1009E31AB2690310030F0000030F1004B
:102102008031042090310030F0000030F1009E3127
:10211200A52690312600D80108007108F900700840
:10212200F8007908F5007808F400F80A0319F90AAA
:1021320074088600750887007308F7007208F600B5
:10214200F20A0319F30A760884007708850000086A
:10215200C03F8908031DAE28AF2892280800260038
:10216200BB01BC011E30F70003309031D420903106
:10217200F0015230F1002130F2004030F300033020
:102182008A315122903171082600BE007008BD00CC
:10219200153020009700A030960011101814260068
:1021A200CE01CE0A0800FC00771DD828D928DE28E7
:1021B200F0017C0893312C239031F71CE128E228AE
:1021C200E828F001F00A7C0893312C2390317C0836
:1021D200983EF800F9010E30F93D7808FA007908C6
:1021E200FB007A0886007B088700770881000800D8
:1021F200F10021008E11F2011629F11F0129022995
:10220200052922008E15072922008E110E150310B2
:10221200F10D0430890B0B2922000E110430890BB9
:1022220010290130F0007008F20726006E087202D1
:10223200031C1C291D29FE280430890B1E290800B5
:1022420021008E11F4014129F21F282929292C2964
:1022520022008E152E2922008E110E150130F03526
:10226200F10DF20D890B30290430890B3629220039
:102272000E110430890B3B290130F3007308F40777
:1022820026006D087402031C4729482925290800E5
:1022920003302F3E86000330870022000C08C03F27
:1022A2002600B00002302F3E860003308700210056
:1022B2000C08C03F2600AF000330343E86000330D6
:1022C200870022000E08C03F2600B5000230343ECF
:1022D20086000330870021000E08C03F2600B400AC
:1022E20008000030F6000030F7000030F800701CE3
:1022F2007B297C2982297308F6077408F73D750843
:10230200F83D0130F335F40DF50D890B83290130C9
:10231200F236F10CF00C890B8929720871047004F1
:10232200031D9429952978297608F0007708F10091
:102332007808F20008007308FA007208F9007108C0
:10234200F8007008F700B929790886007A08870032
:102352000108F6000130F9070030FA3D77088600DF
:1023620078088700760881000130F7070030F83DD1
:102372000130F4020030F53B740A031DC429750ACA
:10238200031DC429C529A5290800033020006306BE
:10239200031DCC29CD29EF29A2302600A800023046
:1023A200A900003020006702083003196602031CEE
:1023B200DB29DC29E1290830F0000030F100E529B1
:1023C2006708F1006608F00071082600AC0070088A
:1023D200AB00D330AD000930AE00AA1708003D00B3
:1023E200181CF429F529162A2100490886008701BC
:1023F20080300106031DFE29FF29142A2600200829
:1024020086002108870084300106031D092A0A2A52
:10241200142A21004908860087010C3081004908EE
:102422008600870181173D001810DF30F000700828
:1024320090050800083027004202031C212A222AA4
:10244200462A3F08D1003E08D0003D08CF003C0894
:10245200CE002100C8012600D50127003F08031D38
:102462003C2A3E08031D3C2AB1303C0204303D3B6D
:1024720003183C2A3D2A422A2600D001D00AEF0145
:10248200462A2600D001EF01EF0A08002300B2100D
:10249200B21132103208260066060319512A522A56
:1024A200782A430844040319572A582A602A430801
:1024B200860044088700811B5F2A602A782A23004D
:1024C2003208C000F001F00AB830F1000130F20029
:1024D2000A30F30001308A3151229231710826000C
:1024E200C4007008C300230032082600E60008007A
:1024F200882A9431052492319031B0209231B02A49
:102502008A31DB2292318C3187249231B02A210028
:102512003108003A0319912A7F3A0319AB2AB02AEB
:102522003008013A03197A2A033A0319B02A013A08
:102532000319812A063A0319B02A773A0319B02AF5
:10254200013A0319B02A073A0319B02A013A0319CA
:10255200B02AB02A3008FF3A0319B02AB02A08007C
:102562000030F7000030F8000030F90021008E152D
:10257200FA01DE2A22000E150130F735F80DF90DA9
:10258200890BBE2A0430890BC42A20000E0CF300EA
:10259200F30C730C0139F400F501F6017408F70429
:1025A2007508F8047608F90422000E110430890B2C
:1025B200D82A0130F3007308FA0726006D087A0260
:1025C200031CE42AE52ABB2A7708F0007808F10008
:1025D2007908F2000800023023003106031DF22AB6
:1025E200F32AF72A8F312E2792312B2BB1012600A5
:1025F2005F08031DFD2AFE2A2A2B21004608013E00
:10260200B6000030473DB70036088600370887001D
:10261200083081006030B6000030B700FF30360568
:10262200B8007F303705B9004608860047088700A2
:1026320042313808C03F3908C13F46088600470882
:1026420087000C3081004608860047088700811702
:102652002B2BDF010800F5002030F6007008F10096
:102662000130F135890B322B7508F2000130F23559
:10267200FF3E031D382B72357107F3000130F3352D
:10268200FF3E031D402B7335F4007408F6077608ED
:102692008600870181137008031D502B512B5B2B81
:1026A2007535A03E8600033087007608C03F0030B3
:1026B200C13F642B7535203E8600033087007608C3
:1026C200C03F0030C13F76088600870101137608BB
:1026D200043E86008701011708000630F900230036
:1026E2009F19742B752B792B1E1D782B792B7B2B25
:1026F2000430F9009F1D7E2B7F2B852B1E1D822B04
:10270200832B852B0230F90021002608F0002708D0
:10271200F1002808F200F3010030A9006C30AA0091
:10272200DC30AB000230AC00790A9B2BAC37AB0C2F
:10273200AA0CA90C890B972B2C08F7002B08F60082
:102742002A08F5002908F4008B31672393317008B9
:10275200FF3E2100AD00FF30713DAE002D08230089
:102762009B0021002E0823009C0008000630210057
:10277200A90023009F19BE2BBF2BC32B1E1DC22BEA
:10278200C32BC62B04302100A90023009F1DCA2B96
:10279200CB2BD22B1E1DCE2BCF2BD22B02302100C6
:1027A200A90023001B08013E2100A30000302300E2
:1027B2001C3D2100A4002308A5002408A600A701AF
:1027C200A801290AE82BA535A60DA70DA80D890B8E
:1027D200E42B2808F3002708F2002608F100250858
:1027E200F0000230F700DC30F6006C30F50000300B
:1027F200F4009531FB25933172082100A200710883
:10280200A1007008A000080000302700D1000030AD
:10281200D0004B30CF000030CE00D201D3010830BF
:10282200D4002300B4011A30F70001309031D420D3
:1028320094311E30F70002309031D4209431F001EF
:10284200C030F1002030F2004030F30002308A3113
:102852005122943171082600C8007008C700C501D2
:10286200C601C301C4012300B201320803193A2C84
:102872003C2C01303D2C00302600E600A130230024
:10288200B8002030B900BA01BB01BC01BD01C001D2
:10289200C1010230BE000030BF00923147229431A4
:1028A2002100CB0108002D302600DE0021004C085B
:1028B200FD39031D5D2C5E2C982C4C363F39BE0031
:1028C2000130BE35FF3E031D622C3E35203EC9005D
:1028D2004908C600C70104304606C6000030470654
:1028E200C700490886008701010C890C0F390D3A8F
:1028F200031D7C2C7D2C942C6030F0000030F10004
:102902004908023E86008701403FF200413FF30042
:102912000830F4000030F50091319C21943194315B
:10292200F8249431A42C9231EC229431A42CFD3061
:102932004C05BE0004303E06031DA02CA12CA42C85
:102942008B31F72394310800FD002300B4012600E7
:10295200470848040319AE2CAF2CB72C4708860051
:1029620048088700811BB62CB72CF52C4708860037
:102972004808870041317B0801020318C12CC22C90
:10298200C92C470886004808870041310108FB002E
:102992002300B401DF2C34087D07FC007C0886008C
:1029A200043087003408C03E840085012030853D14
:1029B200000881000130FC007C08B4077B08340267
:1029C200031CE42CE52CCC2CF001C030F1002030AB
:1029D200F2004030F30002308A3151229431710802
:1029E2002600C8007008C70023003408080026002B
:1029F200E4012300B0012600DB01DA01DF0123003C
:102A0200B1017F302100BD00260020088600210888
:102A1200870021003D088105043026002006A00021
:102A220000302106A1007F302100BD0026002008D1
:102A320086002108870021003D0881050430260018
:102A42002006A00000302106A1007F302100BD0039
:102A520046088600470887003D088105C301C40176
:102A6200C5012600AA01AB01AC019631B126943111
:102A720003302100B0000030B1000030B200B300DA
:102A82000030B400B5009231792294318D311C2589
:102A920094310800F4009E31C62695312600D601F5
:102AA200D60A6E08F5009C30F300D730890B572DFB
:102AB200F30B572D000022008E1021008E108E1570
:102AC20022000E1121000E119C30F300D730890B29
:102AD200682DF30B682D000008302600EE00740804
:102AE2000319742D752D862D0A309031F9209531F8
:102AF20012309031F9209531C2309031F920953160
:102B0200B2309031F9209531962D4D309031F92027
:102B1200953143309031F920953148309031F92088
:102B2200953150309031F92095314E30F300EB3031
:102B3200890B992DF30B992D000075082600EE00E4
:102B42000800033020006306031DA82DA92DFA2DCD
:102B5200EA2D230037082500A2009E31E326953195
:102B62002500A3009331B723953121002008AD0041
:102B72002108AE002208AF002D082500A400210084
:102B82002D08AA002E08AB002F08AC000830AC3686
:102B9200AB0CAA0C890BC82D2A082500A500210020
:102BA2002D08AA002E08AB002F08AC001030AC365E
:102BB200AB0CAA0C890BD82D2A082500A6002000F0
:102BC2000C082500A700A80120000E082500A90076
:102BD200EF2D6208003A0319AA2DFA2DA230210026
:102BE200C1000230C2000830C4000030C50081308C
:102BF200C30008000030FC000030FB000030FA0087
:102C02000030F900730872047104700403190A2E6B
:102C12000B2E4C2EFD01FD0A192E0130F035F10D5F
:102C2200F20DF30D890B0F2E0130F8007808FD0725
:102C3200F31F1C2E1D2E0E2E0130F935FA0DFB0D41
:102C4200FC0D890B1E2E73087702031D322E7208AB
:102C52007602031D322E71087502031D322E700892
:102C62007402031C352E362E3F2E7008F4027108B2
:102C7200F53B7208F63B7308F73B79140130F336E3
:102C8200F20CF10CF00C890B402E0130FD02031DF9
:102C92004B2E4C2E1D2E7C08F3007B08F2007A0886
:102CA200F1007908F00008002000E801E901982EFF
:102CB2002100C31726006203031D602E612EA42E7D
:102CC2002000E814A42E2100C317A42E2100C3174C
:102CD2002000E41B6D2E6E2E7A2E64080F39090730
:102CE200A03E860003308700403FF000413FF100E4
:102CF200852E64080F390907203E860003308700BD
:102D0200403FF000413FF1007008860071088700E3
:102D1200811F8C2E8D2EA42E7008860071088700CC
:102D2200011D942E952EA42E0130E800A42E6008D9
:102D32001F39003A0319592E013A0319642E033A36
:102D42000319672EA42E2100C31FA82EA92EB02E70
:102D52006830C1000030C20043140230C4000800D1
:102D62002000600E890C0339003A0319B92EBA2EDD
:102D7200FB2E1E2F2100C3170830CA001E2F8831D8
:102D8200612096311E2F80310A2096311E2FB630D7
:102D92002100C1000130C2004314C401C40AC31798
:102DA2001E2F9631552696311E2F84317924963165
:102DB2001E2F6408B53E2100C1000130C200CD2E95
:102DC2002100C31720006408B53E86000130870049
:102DD200620881001E2F02302100B0000030B100D5
:102DE2000030B200B3000030B400B5009231792255
:102DF20096311E2F6108003A0319D22E013A0319A7
:102E0200D62E023A0319D62E063A0319BB2E033ADE
:102E12000319C02E013A0319EC2E0F3A0319C82EDA
:102E2200013A0319C42E033A0319DA2E013A03199F
:102E3200E12E073A03191E2F1E2F08002600DB0180
:102E4200DA01023023003106031D282F292F552FC6
:102E520021004608013EF3000030473DF4007308AC
:102E6200860074088700083081006830F300003063
:102E7200F400FF307305F5007F307405F600460854
:102E820086004708870042317508C03F7608C13F77
:102E920046088600470887004830810046088600B9
:102EA2004708870081178C2F210045082000670200
:102EB200031D5F2F21004408200066020318622FC1
:102EC200632F6A2F67082100C500200066082100D1
:102ED200C40097318D2797316830F3000030F40039
:102EE200FF307305F5007F307405F60026002008D8
:102EF20086002108870042317508C03F7608C13F2D
:102F020020088600210887004830810020088600BA
:102F120021088700811708000830F20000302100E4
:102F220045020830031944020318982F992FAB2F3A
:102F32004408F20026006408031DA02FA12FA42F2D
:102F4200E401E40AAB2F6403031DA82FA92FAB2FC2
:102F52000230E4007208F000F10170082100C4029E
:102F62007108C53B26002008013EF0000030213DDB
:102F7200F1007008860071088700720881006830CD
:102F8200E30021004318C62FC72FFA2FDE2F260099
:102F920063088600870121004108840042088500F9
:102FA200000881000130C1070030C23D0130F0004D
:102FB20070082600E3070130F2027208031DE22FB7
:102FC200E32FC82FFF2F2600630886008701210008
:102FD2004108840042088500000881000130C107D1
:102FE2000030C23D0130F00070082600E3070130D6
:102FF200F2027208031DFE2FFF2FE42F080009348E
:1030020002346B34003403340134003480343234FB
:1030120008340B34003402340234023401340034F4
:1030220009340434003400340134023402340134EB
:10303200003405342434003410340134043424348C
:1030420002340234053424340634003401340534A5
:103052002434013400340134073405348134033418
:103062000A340034023409340434013400340234A2
:103072000A34003400340034073405340234023494
:10308200403400340034073405348234023440348E
:10309200003400340934043402340034023403347A
:1030A2000034003400340934213411340134003442
:1030B2000134223425340034073405348334033494
:1030C20040340034013407340534033403344034CB
:1030D20000340134343403344D3400346934003460
:1030E20063340034723400346F3400346334003497
:1030F20068340034693400347034003420340034CD
:103102005434003465340034633400346834003499
:103112006E3400346F3400346C3400346F34003455
:1031220067340034793400342034003449340034B4
:103132006E340034633400342E34003404340334E7
:10314200093404340A347B342234613470347034E8
:1031520022343A3422346D3469346E34693446345C
:10316200503447344134203462346F346134723421
:10317200643422342C3422345534533442344634A9
:10318200573422343A342234003406340034FF34C3
:1031920009340134A1340134153400342634FF34A7
:1031A20000347534083495344034193401342934E8
:1031B2004034813400341934013429344034913498
:1031C2000034953408341934013429340834B134C4
:1031D2000034C0341E3403346D3400346934003496
:1031E2006E340034693400344634003450340034D0
:1031F2004734003441340034203400346234003423
:103202006F34003461340034723400346434003476
:103212001234013400340234EF34023401340834FD
:10322200D83404349434E534203401340134023483
:103232000034013422342C3422346D346534743435
:1032420061345F3463346D34643422343A3400348C
:103252009F3498346B349834EB3498347D340A3488
:0632620000340034983432
:103D38000830210097000800FF3400341834083494
:103D4800013471082700B9007008B800080071082C
:103D58002600C2007008C1000800F93020009B004E
:103D68009A01911077309C00080021001508C0398D
:103D78001538950045302000950045302600D700BD
:103D88000B11080021000E152600361521008E158E
:103D98002600B61521008E142600B614D601080098
:103DA8007C30210099009801903027009B00220068
:103DB800960121001A1FE12EE22EDD2E08002000B8
:103DC8008E1CE72EE82EEA2E0030F12E181CED2E60
:103DD800EE2EF02E0130F12E02300800200099015D
:103DE80015309700A0309600111017082600C00063
:103DF800200016082600BF00313020009800080077
:103E080022008C0110308E00303021008C002E30C2
:103E18008E0023008E018C01383024008C00210094
:103E2800951322009D010800FC00FB017C1C1D2F3E
:103E38001E2F222F7908FA007A08FB070310F90DC4
:103E48000310FC0C7C08031D2A2F2B2F1A2F7B082C
:103E5800080021004B08031D322F332F412F710812
:103E68002600CC007008CB0072082300B30026009F
:103E7800E801E80A2100CB01CB0A08009F3104279A
:103E88009F319E31D4269F319E319C269F318D31A2
:103E9800C7259F319E31B1269F319E31F2269F3131
:103EA8009E31B9269F3190316C209F3108007108EE
:103EB800F3007008F200642F0130F0070030F13D84
:103EC80070088600710887000108031D6C2F6D2F8C
:103ED800602F72087002F0007308713BF10008004F
:103EE80001302700A8070030A93D0030AA3D003066
:103EF800AB3D26006108031D822F832F8E2F0130D2
:103F0800F0007008D9075908031D8B2F8C2F8E2FAE
:103F1800FF30D9000800F200803021004802031861
:103F2800962F972FA92F4808703EF000F1012330F3
:103F3800F13D700886007108870072088100013021
:103F4800F0007008C8070130AA2F00300800710877
:103F5800F7007008F600BA2F760886007708870001
:103F6800720881000130F6070030F73D0130F40295
:103F78000030F53B740A031DC52F750A031DC52FB4
:103F8800C62FB02F08003D001215EF302100B600F3
:103F980036083D0090058E142600E101E10AD9019A
:103FA80075302100B0000030B1000030B200B3001D
:103FB8000030B400B500923179229F310800260004
:103FC800320830063305320622008C0026003108FC
:103FD8002F063305310621008C00260037083506E8
:103FE8003805370622008E002600360834063805C4
:083FF800360621008E000800CE
:020000040001F9
:08000000FF3FFF3FFF3FFF3F00
:04000E00EC2FCF3FC5
:00000001FF
