:0400000080312828FB
:100008007E14803100308600003087000B1F0D28D9
:100018000E28262841011C1C122813281B28121CF4
:10002800162817281B288F316927803126289C1C01
:100038001E281F282628921C2228232826288F318C
:100048006C2780317E10090080312A2859308400BD
:100058000030850011308F317D278031A030840039
:100068000030850020308F317D2780317E1040019F
:1000780080313E281F304001D4000030D5008F3138
:10008800C427803105304001D3000F30D200F13051
:10009800890B4C28D20B4C28D30B4C2881304001BB
:1000A800B8008730B9008F31D42780313230400111
:1000B800B8008530B9005508BB005408BA008F3124
:1000C800D427803101304001D4070030D53D550890
:1000D800803AD20080305202031D74282630540220
:1000E800031C772878287D281F304001D400003071
:1000F800D500FF307D018D008C0140010C08D60031
:10010800A330B8008730B9008F31D4278031A130AF
:100118004001C1009030C2005608C30086316C26E9
:100128008031FF307D019700960140010D08D7000E
:100138003B30B8008730B9008F31D4278031A530E3
:100148004001C1009030C2005708C30086316C26B8
:100158008031FF307D01A100A00140010E08D800C8
:100168005E30B8008730B9008F31D4278031A9308C
:100178004001C1009030C2005808C30086316C2687
:10018800803138304001B8009030B9008F31D42721
:1001980080317D018D018C011F304001C1009030FC
:1001A800C2001230C3009030C4000C08C5005608C5
:1001B800C60084319B2480317D019701960140302F
:1001C8004001B8009030B9008F31D42780311F30FA
:1001D8004001C1009030C2001230C3009030C4000A
:1001E8000D08C5005708C60084319B2480317D0165
:1001F800A101A00140304001B8009030B9008F3112
:10020800D42780311F304001C1009030C200123025
:10021800C3009030C4000E08C5005808C6008431D9
:100228009B24803143304001B8009030B9008F31B1
:10023800D427803117307D018C003F304001B80051
:100248009030B9008F31D42780318F316F278031BA
:1002580000304001B8009030B9005630BA009030F4
:10026800BB00003087311527803171084001BD007F
:100278007008BC008F31D42780318F316F278031CF
:1002880000304001B8009030B9005B30BA009030BF
:10029800BB00013087311527803171084001BD004E
:1002A8007008BC008F31D42780318F316F2780319F
:1002B80000304001B8009030B9006530BA00903085
:1002C800BB00023087311527803171084001BD001D
:1002D8007008BC008F31D427803141304001B8000C
:1002E8009030B9008F31D42780318F316F2780311A
:1002F80000304001B8009030B9007430BA00903036
:10030800BB00043087311527803171084001BD00DA
:100318007008BC008F31D427803141304001B800CB
:100328009030B9008F31D427803141304001B80076
:100338009030B9008F31D427803141304001B80066
:100348009030B9008F31D4278031F0307D0196008C
:1003580040304001B8009030B9008F31D427803147
:1003680041304001B8009030B9008F31D427803136
:1003780041304001B8009030B9008F31D427803126
:1003880041304001B8009030B9008F31D427803116
:1003980041304001B8009030B9008F31D427803106
:1003A8008F316F27803100304001B8009030B9009C
:1003B8007930BA009030BB000C3087311527803176
:1003C80071084001BD007008BC008F31D42780310E
:1003D8008F316F27803100304001B8009030B9006C
:1003E8008330BA009030BB000D308731152780313B
:1003F80071084001BD007008BC008F31D4278031DE
:100408008F316F27803100304001B8009030B9003B
:100418008D30BA009030BB000E30873115278031FF
:1004280071084001BD007008BC008F31D4278031AD
:100438008F316F27803100304001B8009030B9000B
:100448009730BA009030BB000F30873115278031C4
:1004580071084001BD007008BC008F31D42780317D
:10046800FE307D01A0003F304001B8009030B90057
:100478008F31D42780318F316F2780310030400190
:10048800B8009030B9006030BA009030BB0011302D
:1004980087311527803171084001BD007008BC0004
:1004A8008F31D42780318F316F2780310030400160
:1004B800B8009030B9006A30BA009030BB001230F2
:1004C80087311527803171084001BD007008BC00D4
:1004D8008F31D42780318F316F2780310030400130
:1004E800B8009030B9006F30BA009030BB001330BC
:1004F80087311527803171084001BD007008BC00A4
:100508008F31D42780318F316F27803100304001FF
:10051800B8009030B9007E30BA009030BB0014307B
:1005280087311527803171084001BD007008BC0073
:100538008F31D42780318F316F27803100304001CF
:10054800B8009030B9008830BA009030BB00153040
:1005580087311527803171084001BD007008BC0043
:100568008F31D42780318F316F278031003040019F
:10057800B8009030B9009230BA009030BB00163005
:1005880087311527803171084001BD007008BC0013
:100598008F31D42780318F316F278031003040016F
:1005A800B8009030B9009C30BA009030BB001730CA
:1005B80087311527803171084001BD007008BC00E3
:1005C8008F31D42780315A288031282840012208C9
:1005D80086008701403FA500413FA600250884000A
:1005E800260885001200253A031DFB2AFC2A802CC8
:1005F8002208860087010130810741310318810AEA
:10060800D901DA010030E900FF30DB00FF30DC00FF
:10061800220886008701403FA500413FA600250823
:100628008400260885001200633A031D1C2B1D2B2D
:100638003F2B2208860087010130810741310318CA
:10064800810A2308860024088700010884008501A0
:10065800023081070008B2003208A500A60125086B
:10066800F2002608F3002108F5002008F40085317F
:10067800642582319A2C220886008701403FAB000E
:10068800413FAC002B0884002C0885001200643A16
:1006980003194F2B502B5A2B2B0884002C0885004C
:1006A8001200693A031D592B5A2BE32B23088600A5
:1006B8002408870001088400850102308107003F73
:1006C800AE00013FAF002B08013EA50000302C3DD5
:1006D800A6002208860087012508C03F2608C13FDA
:1006E8002030B200AF1B792B7B2B01307C2B0030E4
:1006F800AD000130B2023208A03E860087010A3000
:10070800F0000030F1002F08F3002E08F2008631C7
:100718001B2682317108F7007008F6008731E5273B
:1007280082317608303E81000A30F0000030F10056
:1007380040012F08F3002E08F2008531C0258231D0
:1007480071084001AF007008AE002E082F0403198D
:10075800AE2BAF2BB42B3208031DB32BB42B7D2B40
:1007680032080319B82BB92BDC2B2D080319BD2B24
:10077800BE2BDC2B0130B2023208A03E8600870176
:100788002D308100DC2B3208A03E8600870101084D
:10079800A500A6012508F2002608F3002108F500A7
:1007A8002008F40085316425823101304001B20708
:1007B80020303206031DE12BE22BC72B9A2CAD010A
:1007C800220886008701403FA500413FA600250872
:1007D8008400260885001200733A031DF42BF52BBC
:1007E800002C220886008701013081074131031857
:1007F800810A0130AD00422C220886008701403F63
:10080800A500413FA600250884002608850012009F
:100818006C3A031D102C112C422C220886008701EB
:10082800403FA500413FA600013025078400260867
:100838000318013E850012006C3A031D242C252C58
:10084800422C220886008701403FA500413FA600B0
:1008580002302507840026080318013E850012008F
:10086800733A031D382C392C422C22088600870144
:100878000330810741310318810AFD2B2D08031924
:10088800462C472C762C230886002408870001086C
:100898008400850102308107003FA900013FAA00BA
:1008A8006C2C290884002A0885000008A500A601E8
:1008B8002508F2002608F3002108F5002008F400B6
:1008C80085316425823101304001A9070030AA3DF5
:1008D800290884002A0885001200031D742C752C31
:1008E800552C9A2C40012208860087010130810787
:1008F80041310318810A9A2C220886008701403F5B
:10090800A500413FA60025088400260885000008A8
:10091800A700A8012708F2002808F3002108F5001D
:100928002008F400853164258231762C08004001C6
:10093800D001D10101304001C700500AA42CC735AD
:10094800890BA32C46084705C8000130C900500A86
:10095800AE2CC935890BAD2C45084905CA004A0893
:1009680048060319B82CBA2C0130BB2C0030CF0034
:100978000130C700500AC12CC735890BC02C470865
:100988004505031DC82CC92CCE2C3030CB000030B7
:10099800CC00D22C3130CB000030CC004F08031DE6
:1009A800D62CD72CDC2C4408CE004308CD00E02CF4
:1009B8004208CE004108CD004E30B8009030B90052
:1009C8004E08BB004D08BA004C08BD004B08BC00DF
:1009D8008F31D427843101304001D0070030D13D18
:1009E8005108803AC70080304702031DFD2C0830AB
:1009F8005002031C002D012D9E2C0800E4340F34F6
:100A0800003400340034003473340F3400340034BC
:100A1800A6340F3400340034003400340034003479
:100A2800003400340034003400340034003400341E
:100A3800003400340034003400340034003400340E
:100A48000034003400340034003400348E340F3461
:100A58009A340F3400340034003400341B345B34CF
:100A680031343B34253464346D341B345B344834BE
:100A78001B345B34323447342A342A342A342A3437
:100A88002034503443344234203469346E34703462
:100A98007534743473342034743465347334743472
:100AA8002034463457342034763431342E343034BC
:100AB80020342A342A342A342A340A340A340034B2
:100AC800740875040319692D6A2D702D740875044E
:100AD800031D6F2D702D752D72088F31B527853147
:100AE800BF2D740886007508870049311600010477
:100AF80003197F2D802DA02D7408860075088700A6
:100B08004931403FF600413FF700740886007508F8
:100B180087004231403FF800413FF9007908803AA8
:100B2800FA007708803A7A02031D9C2D760878022D
:100B380003189F2DA02DBF2D740886007508870007
:100B480042317408840075088500003FF600013FB3
:100B5800F700403F76078400413F773D85007208E3
:100B680080007408860075088700423101308107CB
:100B780041310318810A0800F501F11FC42DC52D64
:100B8800CC2DF009F109F00A0319F10A0130F5003A
:100B9800F31FCF2DD02DD72DF209F309F20A03192F
:100BA800F30A0130F506F601F7017008710403191C
:100BB800DE2DDF2D0C2E0130F400E92D0130F0354B
:100BC800F10D890BE32D0130F407F11FEC2DED2D0C
:100BD800E22D0130F635F70D890BEE2D7108730201
:100BE800031DF82D70087202031CFB2DFC2D012E2D
:100BF8007008F2027108F33B76140130F136F00CFC
:100C0800890B022E0130F402031D0B2E0C2EED2D44
:100C180075080319102E112E162EF609F709F60A73
:100C28000319F70A7708F1007608F0000800F501C3
:100C3800F31F1F2E202E272EF209F309F20A03199B
:100C4800F30A0130F500F11F2A2E2B2E302EF00961
:100C5800F109F00A0319F10A700871040319352E15
:100C6800362E5D2E0130F400402E0130F035F10DA6
:100C7800890B3A2E0130F407F11F432E442E392EEA
:100C880071087302031D4A2E70087202031C4D2E50
:100C98004E2E522E7008F2027108F33B0130F136E5
:100CA800F00C890B532E0130F402031D5C2E5D2ECF
:100CB800442E75080319612E622E672EF209F30976
:100CC800F20A0319F30A7308F1007208F000080029
:100CD8004001C701C80101304001C400470A752E10
:100CE800C435890B742E44084305031D7C2E7D2EC4
:100CF800822E3030C5000030C600862E3130C50047
:100D08000030C6002C30B8009030B9004208BB0053
:100D18004108BA004808BD004708BC004608BF00A3
:100D28004508BE008F31D427863101304001C707FE
:100D38000030C83D4808803AC40080304402031D92
:100D4800A72E08304702031CAA2EAB2E6F2E0800D0
:100D580040019801990101309A0037309200F03033
:100D68009300FE30940017307D018C00F03096001F
:100D7800FE30A00037308D00F0309700FF30A10022
:100D88008E019801A20137308F00F0309900FF30B2
:100D9800A300083090009A01A40105307C01C2002C
:100DA80013307B019C007D019101920193019B010D
:100DB8009C019D01A501A601A70108007A01A613BF
:100DC8009430A6000130A7001830A8001030A90000
:100DD8000F30AD00AE01AF01B0018C018D018E0165
:100DE8008F01920193019801970196019E019D013F
:100DF80099019A01A3019F01A101A201A401A501E2
:100E0800AB01AC01AA014001DF01E001DD01DE0117
:100E1800410112101C1092109C1094307A01A60007
:100E28000800FB007B087A019F0026132614261869
:100E38001E2F1F2F1B2F1D08F200F3017208F5004B
:100E48007308F6001E08F200F3017208F300F201BD
:100E58007208F7007308F80075087704F900760837
:100E68007804FA007A08F1007908F00008000A34DA
:100E78001B345B3430346D3450344F345234543472
:100E880042343A3420341B345B3431343B34333409
:100E980033346D3428346E346F34503475346C34D4
:100EA8006C345534703429341B345B3430346D342D
:100EB8000A3400340A341B345B3430346D34503413
:100EC8004F345234543443343A3420341B345B3472
:100ED80031343B34333433346D3428346E346F3426
:100EE800503475346C346C345534703429341B34B4
:100EF8005B3430346D340A3400341B345B3438349A
:100F08003B34333433343B343434303474341B346A
:100F18005B343F34323435346C341B345B34323414
:100F28004A341B345D3432343B346D3469346E34A6
:100F380069344634503447344134073400341B3460
:100F48005B3430346D3450344F345234543441347B
:100F58003A3420341B345B3431343B343334333447
:100F68006D3428346E346F34503475346C346C34CA
:100F78005534703429341B345B3430346D340A34BE
:100F8800003440013608FD003508FC00D82F400128
:100F98003408A1003308A0007C30A2003708A30061
:100FA800A4018231EA2287317C0884007D0885000B
:100FB8001200031DE02FE12FCB2F4001B301B40134
:100FC8000800F71BE82FE92FEA2FF52F7609F8001C
:100FD8007709F900F80A0319F90A7808F600790878
:100FE800F7000800603045018D008F019101053040
:060FF800930092010800C5
:101ED2004101121008004101921008003A307A01C3
:101EE2009F00080070084E018D0008007108400133
:101EF200E8007008E7000800640080010131890BE6
:101F02007E2F003441010C100B140030F000003021
:101F1200F1008F3177278F3108007008710403199F
:101F2200932F942F992F71084001E4007008E30069
:101F320008007008710403199F2FA02FA52F7108A4
:101F42004001E2007008E1000800F0014101101FA9
:101F5200AB2FAC2FB32F4E01911EB02FB12FB32F49
:101F62000130F00070080800F1008F31A6278F3190
:101F7200003A0319BD2FBE2FB62F7108F0008F3122
:101F820073278F3108008731F6278F318631AC26CF
:101F92008F318631E2268F318F31E4278F318F31B5
:101FA20083278F3108003A304001C0000030B3006F
:101FB200B4003908B6003808B5004030B7008731A0
:101FC200C5278F31080048304E01920090309000B2
:101FD2002630910044308E008F010030F000003036
:101FE200F1008F318E278F310030F0000030F10088
:101FF2008F319A278F314001E501E60108001B3439
:102002005B343234323447342534733420343D3433
:102012003D342034253464341B345B344B340A346D
:1020220000341B345B343134323447341B345B3478
:1020320031343B34333431346D3400341B345B344B
:102042003134323447341B345B3431343B3433342F
:1020520033346D34003425347334253464342034FD
:102062003D343D342034253463340A3400341B3487
:102072005B3430346D341B345B3448340A340A34F4
:102082000A3400341B345B3448341B345B3431343F
:102092003B34333436346D340034253473342834CD
:1020A2002534633429340A34003441344E34413403
:1020B2003034003441344E3441343134003441340C
:1020C2004E3443343134003441344E3441343234AA
:1020D200003441344E3443343234003441344E34CB
:1020E20043343334003441344E34413434340034D4
:1020F20041344E3442343434003441344E34433467
:102102003434003441344E344234353400344134B2
:102112004E3443343534003441344E344234363450
:10212200003441344E3443343634003441344E3476
:1021320042343734003441344E344334373400347B
:102142002034523441340034203452344234003486
:08215200203452344334003400
:020000040001F9
:0400000001000000FB
:0A000E008F3FFF3F9F3FFF3FFF3F82
:00000001FF
