:08000000803102288731F32F43
:100ABA00790190110800C03044018C00080085318A
:100ACA005D258531080070084E018D000800790106
:100ADA00120E890C0139080079019217191412179C
:100AEA0008007901191012139213080071084001C5
:100AFA00CF007008CE00080071084001CD007008D0
:100B0A00CC00080071084001CB007008CA00080038
:100B1A00640080010131890B8E2D0034603045015B
:100B2A008D008F019101053093009201080073082E
:100B3A007901970072089600710894007008930072
:100B4A00080041010C100B140030F0000030F100D5
:100B5A0085317B2585310800700871040319B62D8B
:100B6A00B72DBC2D71084001C7007008C6000800E7
:100B7A00700871040319C22DC32DC82D71084001D4
:100B8A00C5007008C400080080305001A200E63099
:100B9A00A1004030A0002F08FC390138AF0008003E
:100BAA00F0014101101FDA2DDB2DE22D4E01911EBD
:100BBA00DF2DE02DE22DF001F00A70080800F100A7
:100BCA008531D5258531003A0319EC2DED2DE52D1A
:100BDA007108F000853168258531080062304001CE
:100BEA00E2000030D900DA006108DC006008DB00AE
:100BFA006230DD0086317E2685310800FF304301F0
:100C0A009D009C017F309F000030F0000030F10011
:100C1A0085318125863141018C12803043019E0045
:100C2A0008000330470190008F019101FF308D00C9
:100C3A008C010030F0000030F100853187258631C3
:100C4A0041010E11803047018E0008008631BC2612
:100C5A008631A2304001E0008830E1008531F32579
:100C6A00863105304001E4000F30E300F130890B92
:100C7A003C2EE30B3C2EE40B3C2E2E2E8031022818
:100C8A0048304E0192009030900026309100443056
:100C9A008E008F010030F0000030F1008531B1255F
:100CAA0086310030F0000030F1008531BD258631F3
:100CBA004001C801C90108004A018C130030F40040
:100CCA000830F50086319C2686310C304A019500A1
:100CDA009901980197019601410113101D10931073
:100CEA009D1013111D1193119D1180304A018C0022
:100CFA00080040015C08DF005B08DE008F2E5A08FE
:100D0A00D2005908D1005E30D3005D08D400873183
:100D1A004C27863140015E0884005F088500120076
:100D2A00031D982E992E842ED901DA010800740821
:100D3A00663EF6000030753DF7007508F10074084C
:100D4A00F0007708F3007608F20085319C25863199
:100D5A0085317125863185316C258631003A031D2E
:100D6A00B72EB82EB02E853176258631080085310A
:100D7A009325863186316126863187310827863167
:100D8A008631DE26863186314526863185316025D3
:100D9A0086318531642586318531C925863186318A
:100DAA00032686318631162686318531A625863177
:100DBA0008007901A5010730A6000730A700250819
:100DCA00F3390838A500A401A301A201D530A10076
:100DDA00F330A505A401A301A201A101A0019F016D
:100DEA009E019D01FF309700FF3096009401930108
:100DFA009A0141018D1097100D1117117901A50162
:100E0A001030920008004001980199019A01373088
:100E1A009200E0309300F830940007307D018C0096
:100E2A00E0309600C030A00010308D0097013830B5
:100E3A00A1008E019801A20127308F00E0309900AD
:100E4A00C130A3000F309000E0309A00C030A400F7
:100E5A0014307C01D7001530D8000430D900133083
:100E6A00DA000530C20024307B019D0025309E0047
:100E7A002630980013309C007D0191019201930164
:100E8A009B019C019D01A501A601A7010800400143
:100E9A00530886008701403FD500413FD6005508D8
:100EAA008400560885001200253A031D5D2F5E2F27
:100EBA007B2F5308860087010130810741310318CF
:100ECA00810AC001C1010310003003180130D000AB
:100EDA00FF30C200FF30C30040015308860087017B
:100EEA000130810741310318810A952F5308860082
:100EFA008701403FD500413FD60055088400560877
:100F0A0085000008D700D8015708F2005808F300F6
:100F1A005208F5005108F400873196278731712F5E
:100F2A0008007408750403199B2F9C2FA22F7408BC
:100F3A007504031DA12FA22FA72F72088531E4255E
:100F4A008731F22F74088600750887004931160028
:100F5A0001040319B12FB22FD22F74088600750825
:100F6A0087004931403FF600413FF7007408860088
:100F7A00750887004231403FF800413FF90079087F
:100F8A00803AFA007708803A7A02031DCE2F760853
:100F9A0078020318D12FD22FF22F74088600750811
:100FAA00870042317408840075088500403F0007B5
:100FBA00F6000131413F003DF700760886007708C8
:100FCA00870072088100740886007508870042311C
:100FDA000130810741310318810A0800FC01FD0133
:100FEA002030840000308500313085318D258731ED
:100FFA00400186312B2E1021002100100000000034
:10100A00460114284001000000000A0040150A2881
:10101A00C401BC3AC0016B19A210200A00000F3C9F
:10102A00000C000000006B19A214200A0000000046
:10103A00000000000000000000000000E0014F0076
:10104A000000000000000000000000000000000096
:10105A0000000000000034294001001400000000D4
:10106A000000000000000000000000000000000076
:10107A000000000000000000000000000000000066
:10108A004001142840010000000000000000000098
:10109A000000000000006A19B514200A00000000D0
:1010AA0005000000020461001F3CF0011F3EE0033E
:1010BA001F3EE1031F3CC00100040000420005007E
:1010CA0000084534063400340034003400346834EF
:1010DA00053400340034D534053400340034003487
:1010EA000034003400340034003400340034003456
:1010FA000034003400340034003400340034003446
:10110A000034003400340034003400340034003435
:10111A000034B1340534BD340534003400340034AD
:10112A00003403340634003400340034003400340C
:10113A0000348134053400340034483465346C3466
:10114A006C346F342034663472346F346D34203426
:10115A006D3469346E34693446345034473441341A
:10116A002E340A3400341634063400340034003481
:0E117A0000340034003487340534003400346F
:020000040001F9
:0400000001000100FA
:0A000E008C1FFD359F3FFF3FFF3FB1
:00000001FF
