:10000000803102288731AC2F183408340134F601CE
:10001000F11F0B280C281328F009F109F00A031925
:10002000F10AF601F60AF31F162817282028F2090C
:10003000F309F20A0319F30A0130F4007408F60612
:10004000F701F80170087104031927282828572898
:10005000F501F50A34280130F035F10D890B2C2813
:100060000130F4007408F507F11F372838282B28D1
:100070000130F735F80D890B392871087302031D1B
:10008000432870087202031C462847284C28700831
:10009000F2027108F33B77140130F136F00C890B52
:1000A0004D280130F502031D5628572838287608B8
:1000B00003195B285C286128F709F809F70A031976
:1000C000F80A7808F1007708F000080021004908D4
:1000D00086008701413FFD007D08B200B30133086F
:1000E00026003402031D782821003208260033023E
:1000F00003187B287C287E283308FD007D0821001A
:10010000B200B30132082600B302210033082600F2
:10011000B43BFC01A4287C08683E860087010108E6
:100120002100B20026003008860031088700210037
:100130003208810001302600B0070030B13D0130A7
:100140002100B2003208FC077D087C02031CA928AC
:10015000AA288B282600330834040319B028B128B4
:10016000F02821004608013EB2000030473DB300B0
:100170003208860033088700083081006830B200FA
:100180000030B300FF303205B4007F303305B500D6
:10019000460886004708870042313408C03F3508CA
:1001A000C13F490886008701011BD728D828E428C9
:1001B00046088600470887004830810046088600C8
:1001C00047088700811737294608860047088700B7
:1001D00008308100460886004708870081173729C4
:1001E00021004608013EB2000030473DB30032080E
:1001F000860033088700083081006030B20000308C
:10020000B300FF303205B4007F303305B500460837
:1002100086004708870042313408C03F3508C13F97
:10022000460886004708870004308100460886009B
:10023000470887008117260035083604031921294D
:1002400022292C290530303E860003308700413FAB
:100250008A00403F0A0081312600B2132300300893
:10026000031D33293429372989312E218031080093
:10027000FD0021002108220403193F294029062AF4
:1002800004302002031C4529462948290330A000D8
:1002900064307D02031C4D294E2985296430F0000D
:1002A0000030F1007D08A300A4012308F200240817
:1002B000F3008031072081317008303E2100A50015
:1002C0002108860022088700250881000130A10747
:1002D0000030A23D6430F9007D08A300A40123088A
:1002E000F2002408F3006430F0000030F1008031A7
:1002F0000720813170089031602081312100A500F4
:100300002508FD020330A000952903302002031CBC
:100310008A298B29952921088600220887003030F8
:1003200081000130A1070030A23D0A307D02031C8C
:100330009A299B29D2290A30F0000030F1007D086B
:10034000A300A4012308F2002408F3008031072051
:1003500081317008303E2100A50021088600220866
:100360008700250881000130A1070030A23D0A3036
:10037000F9007D08A300A4012308F2002408F3007B
:100380000A30F0000030F100803107208131700820
:100390009031602081312100A5002508FD02023046
:1003A000A000E22902302002031CD729D829E22923
:1003B0002108860022088700303081000130A10723
:1003C0000030A23D7D080319E629E729F5297D08BB
:1003D000303EA30021088600220887002308810000
:1003E0000130A1070030A23D012A20080319F92994
:1003F000FA29012A2108860022088700303081006E
:10040000F029210886002208870081012108A00028
:100410002208A10008002000911C0F2A102A272A78
:100420009110260056080319162A172A1A2A013095
:10043000D6021C2A21000C16260057080319212A6F
:10044000222A252A0130D702272A21008C162030A3
:1004500021004A02031C2D2A2E2A332A3D008E1C1D
:10046000322A332A572A2600D601D70121008C16BA
:100470000C16C8012600D9012000911E402A412AED
:10048000032B23009D1C452A462A482A1D121D16AF
:1004900021004808703EA800A9012330A93D280882
:1004A000860029088700230019088100032B2000FB
:1004B000911E5B2A5C2A8E2A23009D1C602A612AD9
:1004C000632A1D121D1626006F080319682A692A5F
:1004D0008A2A80302100480203186F2A702A8A2A4B
:1004E0004808703EA800A9012330A93D28088600CD
:1004F0002908870023001908810001302100A80085
:100500002808C80705302600D60022000C1221005A
:100510000C128E2A230019082600D3002100480857
:100520000319932A942AA42A4B08031D982A992A6E
:10053000A42A7030F0002330F1004808F200903116
:10054000752082312100C80126005908031DA92AFF
:10055000AA2AB32A4030FB00203095316F25823122
:100560002600D900D8016F080319B72AB82ADB2A58
:100570002000111EBC2ABD2A032B2600590803198E
:10058000C22AC32A032B5808203E86000430870065
:10059000010823009A0001302100A8002808260045
:1005A000D8070130D90222008C1221008C120530AC
:1005B0002600D700032B21008C168C162600540829
:1005C0000319E32AE42A032B21004808031DE92A22
:1005D000EA2A032B4B08031DEE2AEF2A032B703067
:1005E000A6002330A7008931AA2182317030F000A3
:1005F0002330F1009031A020823170082100C80022
:1006000001302600D40208002000111C082B092B01
:100610000E2B181011109F31DD278331203021005F
:100620004A02031C142B152B1A2B3D008E1C192B70
:100630001A2B292B2600D2013D008E1C202B212BAA
:10064000FD2B20001810111022008E1021008E109A
:10065000FD2B2600520803192E2B2F2BFA2B4108B5
:1006600042040319342B352B3D2B410886004208E8
:100670008700811B3C2B3D2BD42B2100BF01C001E7
:100680004008B8003F08B700B735B80DB735B80D0A
:100690001230B9002130BA0037083907BB003808DA
:1006A0003A3DBC003B0886003C0887002300370821
:1006B000810021004008B8003F08B700B735B80DE9
:1006C000B735B80D1330B9002130BA0037083907F3
:1006D000860038083A3D870081010130BF070030AD
:1006E000C03D00304002103003193F02031C792B3B
:1006F0007A2B402BBF01C0014008B8003F08B7006B
:10070000B735B80DB735B80D5230B9002130BA0041
:1007100037083907860038083A3D8700403FAF0068
:10072000413FB000423FB100433FB2008331FE235E
:10073000833121004008BC003F08BB00BB35BC0D25
:10074000BB35BC0D1230BD002130BE003B083D075B
:1007500086003C083E3D87002F08C03F3008C13F5F
:100760003108C23F3208C33F0130BF070030C03DEF
:1007700000304002103003193F02031CC02BC12B74
:100780007C2B2600D101D10AF0015230F10021303A
:10079000F2004030F30003308B31232383317108A2
:1007A0002600C2007008C10051080319D82BD92BAC
:1007B000FD2B3F0840040319DE2BDF2BE72B3F08FE
:1007C000860040088700811BE62BE72BFD2BF001FC
:1007D000F00A1230F1002130F2004030F300033013
:1007E0008B312323833171082600C0007008BF00BD
:1007F000D101FD2B9131AC218331080021002F085C
:1008000023003706031D052C062C062DDF2C003097
:100810003202023003193102031C0F2C102C192D47
:10082000043032028130031931020318182C192CBC
:10083000192D3108F0003208F100F2016430F300A4
:100840000030F4000030F50092316D2283317008E1
:100850002100A6007108A7007208A80094313B246B
:100860008331192D0130320200300319310203188F
:100870003A2C3B2C3E2C31082300B70023003708CC
:100880002100B300B4013308B1003408B200192DBF
:1008900000303202023003193102031C502C512C5B
:1008A0005D2C003032020930031931020318592C33
:1008B0005A2C5D2C31082600EE0026006E0821001F
:1008C000B300B4013308B1003408B200192D003070
:1008D0003202023003193102031C6F2C702C7C2C65
:1008E000003032021930031931020318782C792CA8
:1008F0007C2C31082600ED0026006D082100B30095
:10090000B4013308B1003408B200192D9331BD236E
:100910008331192D9F31DD278331192D3208B6001F
:100920003108B5009B2C0430890B942C0130210038
:10093000B5020030B63B35083604031DA02CA12CAF
:10094000932C192D31089131F52183312100310883
:10095000AF0093318223833170082100B000710809
:10096000B1007208B200192D943184248331210022
:100970002008B0002108B1002208B200192D31086A
:100980003204031DC42CC62C0130C72C00302600B5
:10099000EF006F082100B300B4013308B100340840
:1009A000B200192D31089031D42083312100B300D9
:1009B000B23086000030870033088100192D2100F5
:1009C0003008003A0319192D013A0319072C033A8C
:1009D0000319322C013A0319482C073A0319672CE2
:1009E000013A0319862C033A03198A2C013A031998
:1009F0008E2C0F3A0319A22C013A0319B42C033A96
:100A00000319BF2C013A0319D22C192D21002F08EC
:100A10009131F5218331AF308600003087004131BC
:100A2000403FF000413FF100423FF20092311D2271
:100A30008331080021004A08031D1F2D202D322D6F
:100A40003D008E019201163091009F3097007B305F
:100A500092002B2D8E158E1D2E2D2F2D2A2D21002F
:100A6000CA01CA0A4A03031D362D372D432D3D0006
:100A70008E1A3B2D3C2D432D90019201121412161B
:100A800002302100CA003D00101D472D482D552D74
:100A9000121D4B2D4C2D552DFB302100BF003F0862
:100AA0003D0090059131472185313D008E1C592D27
:100AB0005A2D5D2D20001211462E101C602D612D27
:100AC000702D121C642D652D702D8E319926853167
:100AD00004302100CA00FE30BF003F083D009005F1
:100AE000101E732D742D7B2D121E772D782D7B2DCE
:100AF00091310C2185313D00101F7F2D802DAC2DB3
:100B0000121F832D842D932D73302100B0000030EF
:100B1000B1000030B200B3000130B4000030B500C5
:100B200093314A238531BF302100BF003F083D008B
:100B300090059031B9208531260060080319A12D58
:100B4000A22DA42D0130E0026008031DA82DA92DBF
:100B5000AC2D89312E2185313D00901EB02DB12D57
:100B6000B82D921EB42DB52DB82D9231C1228531EC
:100B70003D00901CBC2DBD2DD22D921CC02DC12D31
:100B8000D22DFF302100B0007F30B1000030B20024
:100B9000B3000130B4000030B50093314A238531F1
:100BA0003D009301043021004A020318D82DD92DAD
:100BB000DC2D20001211462E3D00921DE02DE12D6E
:100BC000442E2100C0013D00901DE72DE82D442E4C
:100BD0000F082100CC004C0CBF00BF0C3F0C0F399C
:100BE0002600E200F7302100BF003F083D009005DD
:100BF00021004C19FC2DFD2D0F2E26006208373EDA
:100C0000860003308700010801392100BF00013050
:100C1000BF0601083F06FE393F068100202E260050
:100C200062083B3E8600033087000108013921003D
:100C3000BF000130BF0601083F06FE393F068100B4
:100C400026006208031D252E262E2A2E9431D2243A
:100C50008531392E72302100B0000030B100CC3027
:100C6000B2000030B3000030B400B50093314A2325
:100C7000853101302100BF003F08C0070430400229
:100C8000031C432E442EE32D2000121108002000E7
:100C90006203031D4C2E4D2E632E60081F39003A4F
:100CA000031D532E542E632E2100C3170330200042
:100CB0006106031D5C2E5D2E612E2600E401E40A10
:100CC000632E2600E40120006208031D682E692EB1
:100CD000AB2F60081F39023A031D6F2E702EAB2F09
:100CE00064080F39003A0319762E772EAB2F64086B
:100CF0000F392100B600043036020318802E812EF1
:100D0000AB2F20304A06031D862E872EAB2FC3172C
:100D10002000E41B8C2E8D2EA42E64080F390907A9
:100D2000283E860003308700403F2100BB00413F42
:100D3000BC00200064080F39373E8600033087006E
:100D400001082100BA00BA2E64080F390907203EB5
:100D5000860003308700403F2100BB00413FBC00BC
:100D6000200064080F393B3E8600033087000108ED
:100D70002100BA003A18BD2EBE2EC92EFB30B60097
:100D8000FF30B7003B083605BB003C083705BC0008
:100D9000CF2E04303B04BB0000303C04BC002000DC
:100DA000E41BD32ED42EE12E64080F390907283E08
:100DB00086000330870021003B08C03F3C08C13F4C
:100DC000ED2E64080F390907203E860003308700A6
:100DD00021003B08C03F3C08C13F033020006106B2
:100DE000031DF32EF42E1D2F21003B0886003C0826
:100DF0008700811FFC2EFD2E112F2000E41B012FE8
:100E0000022F0A2F64080F39373E8600033087000F
:100E10008114112F64080F393B3E86000330870090
:100E2000811421003B0886003C08870001153B081F
:100E300086003C0887008117AB2F043021003B0659
:100E4000BB0000303C06BC003B0886003C08870025
:100E5000811F2B2F2C2F492F7F30B6003B08860097
:100E60003C088700360881053B0886003C0887005F
:100E700001170530B0000030B1003C08B3003B085A
:100E8000B2000230B4000030B50093314A238631FD
:100E90004E2F3B0886003C088700011704302100D4
:100EA0003B06BB0000303C06BC00BA18582F592F37
:100EB000612F3B0886003C088700811F602F612F4F
:100EC0008E2F2000E41B652F662F6E2F64080F39CC
:100ED000373E8600033087008110752F64080F3974
:100EE0003B3E86000330870081103B302100B60076
:100EF0003B0886003C088700360881050530B000B5
:100F00000030B1003C08B3003B08B2000230B4002E
:100F10000030B50093314A238631962F3B30B6001E
:100F20003B0886003C0887003608810520006408DD
:100F30000F39983E2100B600B7010E30B73D360894
:100F4000B8003708B900FE30B60038088600390806
:100F50008700360881050800230090310020873182
:100F6000B7002600803104208731ED008031052054
:100F70008731EE00803106208731EF007030840029
:100F8000233085008030FE000030FF009F31F427C1
:100F90008731C1308400003085000C30FE00003005
:100FA000FF009F31F42787312300B001B101B20166
:100FB000B301B401B501B6012030840003308500CF
:100FC0004D30FE000030FF009F31F4278731A03004
:100FD0008400033085002530FE000030FF009F3183
:100FE000F427873120308400043085004030FE0033
:100FF0000030FF009F31F4278731200090313928DD
:10100000F5002030F6007008F1000130F135890B51
:1010100006287508F2000130F235FF3E031D0C284A
:1010200072357107F3000130F335FF3E031D1428BC
:101030007335F4007408F60776088600870181137B
:101040007008031D242825282F287535283E860082
:10105000033087007608C03F0030C13F382875351F
:10106000203E8600033087007608C03F0030C13F35
:1010700076088600870101137608043E8600870102
:10108000011708000830F200003021004502083046
:101090000319440203184D284E2860284408F20022
:1010A00026006608031D552856285928E601E60A39
:1010B00060286603031D5D285E2860280230E60074
:1010C0007208F000F10170082100C4027108C53BEC
:1010D00026002008013EF0000030213DF10070089C
:1010E000860071088700720881006830E5002100E1
:1010F00043187B287C28AF289328260065088600A3
:101100008701210041088400420885000008810011
:101110000130C1070030C23D0130F00070082600E8
:10112000E5070130F2027208031D972898287D28F0
:10113000B428260065088600870121004108840044
:1011400042088500000881000130C1070030C23D1F
:101150000130F00070082600E5070130F202720845
:10116000031DB328B42899280800803020006006A9
:10117000031DBB28BC282D29C0302100C300212914
:1011800001302100C1009930C2001230C40000308B
:10119000C5002D296208031DCE28CF28FB28620830
:1011A000F000F101F035F10D2A307007840019309C
:1011B000713D80388500003F2100C100013FC20021
:1011C0004208F1004108F000023070078400710805
:1011D0000318710A85000008C4004208F1004108A4
:1011E000F00003307007840071080318710A85004D
:1011F0000008C5002D292100C3012D2903306202FA
:10120000031803290429FB286208F000F101F035D6
:10121000F10D2130700784001930713D8038850050
:10122000003F2100C100013FC20041088400420884
:1012300085000008F000F1017008C4007108C500C5
:101240002D2920006308013A0319C028033A031925
:10125000CA28013A0319FE28FB28080026005F0867
:10126000031D33293429A9290130DF005E08031D3D
:101270003A293B29A9290130DE000230230031063A
:10128000031D4329442957292600200886002108E8
:1012900087004131810120088600210887004830FD
:1012A000810020088600210887008117A9293103C1
:1012B000031D5B295C29A9292600E1012100490AB7
:1012C00086008701083081006030F0000030F100B6
:1012D000FF307005F2007F307105F3004908023ECF
:1012E000860087017208C03F7308C13F4908860025
:1012F0008701043081004908860087018117260094
:10130000E101E10A21004608013EF0000030473DBE
:10131000F100700886007108870008308100603095
:10132000F0000030F100FF307005F2007F307105F1
:10133000F300460886004708870042317208C03F24
:101340007308C13F46088600470887008030810047
:10135000A929080021002708F1002608F0009B3089
:10136000F2009830F30091318A2189312100270859
:10137000F1002608F0009031A0208931700821008A
:10138000A6077108A73D2608860027088700303089
:1013900081000130A6070030A73D260886002708F7
:1013A0008700313081000130A6070030A73D2608B4
:1013B0008600270887002E3081000130A607003004
:1013C000A73D2608860027088700303081000130BD
:1013D000A6070030A73D2608860027088700303082
:1013E00081000130A6070030A73D2708F10026083C
:1013F000F0001330F2009930F30091318A218931E5
:101400002100A001A00A2708F1002608F000903171
:10141000A0208931700821002607A1007108273D0E
:10142000A2002300370881313821893121002108A9
:10143000A7002008A6002708F1002608F0002730A2
:10144000F2009930F30091318A218931080020009F
:1014500062082100AF00A230B0002F08031D312A1E
:10146000322A382A250022082100AF00A330B0001C
:101470003008B100962A3008860002308700010843
:101480002300B700A42A3108860002308700403FBD
:10149000FA00413FFB0000307B02023003197A0260
:1014A000031C532A542AA42A3108860002308700DC
:1014B000403FFA00413FFB0004307B0281300319BA
:1014C0007A020318642A652AA42A310886000230A9
:1014D0008700403FF000413FF1006430F2000030EF
:1014E000F300913128218A3170082100A60071088B
:1014F000A700A80194313B248A31A42A3108860030
:101500000230870016000104031D872A892A013052
:101510008A2A00302600EF00A42A30088600023014
:10152000870001089031D4208A31A42A2F08013A7B
:101530000319432A033A03193B2A083A03197E2A5E
:10154000013A03198D2AA42A08002100C3170E307E
:10155000B8009930B700B90137088600380887000D
:1015600081010130B7070030B83D0130B6003608C0
:10157000B90703303902031CBE2ABF2AAC2A203027
:10158000F0000030F1000030F200F3004030F400D1
:101590000030F5009031F0208A313D000E17210017
:1015A000BA013A083B3E86000330870081013A08C1
:1015B000373E86000330870081010130B6003608CF
:1015C000BA0704303A02031CE62AE72AD12AB530CA
:1015D000F0000130F1000030F200F3000130F400BF
:1015E0000030F5009031F0208A313D000E13283094
:1015F0002600A0000030A10020302100C9004908C9
:10160000C600C701200062082300B6003608031D8B
:101610000A2B0B2B0F2B10302100CA00222B01307C
:101620002100B0000030B100B630B2000130B3008C
:101630000130B4000030B50093314A238A312030A4
:101640002100CA000800F80070080319282B292B74
:10165000332B7835203E860003308700403FF90069
:10166000413FFA003C2B7835283E86000330870046
:10167000403FF900413FFA0079087A04031D412BED
:10168000422B452BF001F101AC2BFF307105F4002A
:101690007F307205F500790886007A0887004231AC
:1016A0007408C03F7508C13F7908013EF40000305E
:1016B0007A3DF5007408860075088700730881007C
:1016C0004030F400790886007A08870074088105A4
:1016D000790886007A0887008115790886007A08DB
:1016E0008700811770080319762B772B902B78359C
:1016F000203E860003308700403FF400413FF50064
:1017000004307406F60000307506F7007835203E88
:101710008600033087007608C03F7708C13FA82BBA
:101720007835283E860003308700403FF400413F73
:10173000F50004307406F60000307506F7007835C1
:10174000283E8600033087007608C03F7708C13FF7
:101750007A08F1007908F0000800200060081F39BD
:10176000013A0319B42BB52BB62B382C600E890C1B
:101770000339013A0319BD2BBE2BBF2B382C64084B
:101780000319C32BC42B272C64030319C82BC92BA3
:10179000272C382CB6302100C1000330C20008309D
:1017A000C4000030C50043142100C317382CB630E4
:1017B0002100C1000330C200D42B67082600B4000A
:1017C000200066082600B300AC30B0000330B10042
:1017D000EC30B5001230B600B217382CBE30210004
:1017E000C1000330C2000730C4000030C500C13062
:1017F000C300382C62082600E900691C002C012C6B
:10180000112C6708031D052C062C0D2C2000181028
:10181000111022008E1021008E102600E701E70A29
:10182000D42B67080319152C162C242C2000181013
:10183000111022008E1021008E101530200097000C
:10184000A0309600111018142600E701D42B61086F
:10185000003A0319CA2B013A0319D72B213A03196D
:10186000DD2B013A0319EE2B033A0319FA2B382C1E
:1018700008002100A101F31F3E2C3F2C4C2CF00945
:10188000F109F209F309F00A0319F10A0319F20A3E
:101890000319F30AA101A10AF71F4F2C502C5F2C4A
:1018A000F409F509F609F709F40A0319F50A031909
:1018B000F60A0319F70A0130F8007808A10600308B
:1018C000A5000030A4000030A3000030A20073087F
:1018D00072047104700403196E2C6F2CB02CA001DB
:1018E000A00A7D2C0130F035F10DF20DF30D890BBE
:1018F000732C0130F8007808A007F31F802C812C8E
:10190000722C0130A235A30DA40DA50D890B822CDC
:1019100073087702031D962C72087602031D962C1D
:1019200071087502031D962C70087402031C992C13
:101930009A2CA32C7008F4027108F53B7208F63B50
:101940007308F73B22140130F336F20CF10CF00C63
:10195000890BA42C0130A002031DAF2CB02C812CCC
:1019600021080319B42CB52CC02CA209A309A40981
:10197000A509A20A0319A30A0319A40A0319A50AAF
:101980002508F3002408F2002308F1002208F000E3
:101990000800260020088600210887000030011B6F
:1019A0000130FC0004302006A00000302106A10018
:1019B000083021004A06031DDE2CDF2CF02C20000D
:1019C00062087F393D00960016080319E82CE92CBF
:1019D000ED2C10302100CA00F02C04302100CA0088
:1019E00023003103031DF52CF62C3F2D6830210018
:1019F000B2000030B300FF303205B4007F30330551
:101A0000B500260020088600210887004231210009
:101A10003408C03F3508C13F883142208C31023044
:101A200026006606031D152D162D222D2008860082
:101A300021088700043081002008860021088700E3
:101A40008117582D7C08031D262D272D332D2008A6
:101A50008600210887004830810020088600210880
:101A600087008117582D200886002108870008303C
:101A7000810020088600210887008117582D260044
:101A8000B21F432D442D562D350836040319492D18
:101A90004A2D542D0530303E860003308700413FEB
:101AA0008A00403F0A008D312600B2132300B101A5
:101AB0000800200060081F39013A0319602D612DCC
:101AC000622DED2D023064060319672D682D692DF6
:101AD000ED2D06306106031D6E2D6F2D9F2D942D6B
:101AE00023003603031D752D762D9F2D4C302100CC
:101AF000C1009830C2000930C4000030C500C030B9
:101B0000C3009F2D23003603031D872D882D9F2D95
:101B1000BE302100C1009830C2002530C400003022
:101B2000C500C030C3009F2D6308213A0319702DF2
:101B3000033A0319822D013A03199F2D9F2D20008E
:101B4000600E890C0339013A0319A72DA82DD92D50
:101B5000ED2D963115268D31ED2D923197228D3157
:101B6000ED2D6C302100C1000330C2000130C400F3
:101B70000030C500C130C300ED2D80302100C3000E
:101B8000200063082600EC00ED2D6B302100C10021
:101B90000330C2000130C4000030C5008130C300F2
:101BA000ED2D80302100C300200062082600EB00EC
:101BB000ED2D6108013A0319A92D033A0319B12D3E
:101BC000013A0319C52D0A3A0319AD2D033A031939
:101BD000BD2D013A0319D12DED2D08003D000E1247
:101BE0002100C31BF42DF52D422E2600B21FF92D26
:101BF000FA2D0A2E02302300B10026005C08031DD6
:101C0000022E032E062E973192278D312600DE01FB
:101C1000DF01982E21004608013EF7000030473DC5
:101C2000F800770886007808870008308100603067
:101C3000F7000030F800FF307705F9007F307805B5
:101C4000FA00460886004708870042317908C03FFD
:101C50007A08C13F46088600470887000C3081009B
:101C6000460886004708870081172600200886005E
:101C700021088700043081002008860021088700A1
:101C80008117982E2000E01F462E472E602E23003D
:101C9000B101B10A26005D08031D4F2E502E532EB0
:101CA000973192278D312600DE01DF0123003008B5
:101CB000031D5B2E5C2E982E89312E218D31982E9E
:101CC00002302300B10021004608013EF700003039
:101CD000473DF800770886007808870008308100C3
:101CE0006030F7000030F800FF307705F9007F30F2
:101CF0007805FA00460886004708870042317908CF
:101D0000C03F7A08C13F4608860047088700043074
:101D10008100460886004708870081172600DE01FB
:101D2000DF0123003008031D962E972E982E5C2E7F
:101D30000800210012113D009301900198010E301E
:101D4000F5009930F400F6017408860075088700E4
:101D500081010130F4070030F53D0130F0007008DA
:101D6000F60703307602031CB62EB72EA42E1630CB
:101D70003D0091009F3097007B309200F70177087B
:101D8000F0000130F035FF3E031DC22E7035203EBD
:101D9000860087010030C03F0030C13FC23FC33FD3
:101DA0000130F0007008F70710307702031CD92EBD
:101DB000DA2EBF2E3D000E1796010E120E13F730CD
:101DC000F000700890052100C3012600B201B301A4
:101DD000B4013D009019ED2EEE2EDF2E01302600CD
:101DE000DF000130DE00DD01DC01E301F7017735C2
:101DF000203E8600033087000030C03FC13F77356A
:101E0000283E8600033087000030C03FC13F77087E
:101E10003B3E86000330870081017708373E86000D
:101E20000330870081010130F0007008F7070430AB
:101E30007702031C1C2F1D2FF72E28302600A00030
:101E40000030A10016303D0098006030F0000030F6
:101E5000F100FF307005F2007F307105F300720869
:101E60002000A2007308A3000830A1000430A000E5
:101E7000A0172300B60100302700A3000030A20005
:101E80000030A1000030A0002600DB012100CA01C3
:101E90000800933118238F31260049084A0403199A
:101EA000522F532F5C2F490886004A088700811F54
:101EB0005A2F5B2F5C2FFF2F033021004B06031D91
:101EC000622F632F642FCB014B08031D682F692FEE
:101ED0006A2FFF2F02304B06031D6F2F702F832FA9
:101EE000F001F00A0030F100F200F30102308B3112
:101EF00023238F3171082600CA007008C9000330FF
:101F00002100CB00FF2F4B03031D872F882FFF2FAE
:101F1000413023003302031C8E2F8F2F922F40302D
:101F2000FD00942F3308FD007D083302B3002030FC
:101F30002600CE008030CD007D08FC006A08031D1D
:101F4000A22FA32FD62FBA2F4F0886005008870044
:101F50000108FB004D0886004E0887007B088100C1
:101F60000130CD070030CE3D0130CF070030D03DED
:101F70000130FC027C08031DBE2FBF2FA42FDB2FD6
:101F80004F088600500887000108FB004D088600B6
:101F90004E0887007B0881000130CD070030CE3D20
:101FA0000130CF070030D03D0130FC027C08031D1A
:101FB000DA2FDB2FC02F23003308031DE02FE12F82
:101FC000EE2F40307D06031DE62FE72FEB2F02306A
:101FD0002100CB00EE2F03302100CB00F001F00AEE
:101FE0008030F1002030F2007D08F30002308B31A8
:101FF00023238F3171082600CA007008C900080029
:10200000FF34F93020009B009A01911077309C003A
:1020100008007C30210099009801903027009B0037
:102020002200960121001A1F1628172812280800DE
:1020300020008E1C1C281D281F2800302628181C54
:1020400022282328252801302628023008002000D5
:10205000990115309700A03096001110170826003E
:10206000C400200016082600C3003130200098006C
:10207000080090318A209031640085311A25903112
:1020800082310B2290318331042390318F314927E3
:1020900090313C288031022822008C0110308E00C3
:1020A000303021008C002E308E0023008E018C01F8
:1020B000383024008C002100951322009D01080077
:1020C000FC00FB017C1C652866286A287908FA0058
:1020D0007A08FB070310F90D0310FC0C7C08031DA4
:1020E0007228732862287B08080021004B08031D12
:1020F0007A287B28892871082600D0007008CF0034
:1021000072082300B3002600EA01EA0A2100CB018D
:10211000CB0A080090314C20903190310920903149
:102120009F31D92790318E319926903190310120FD
:102130009031903127209031913168219031080001
:102140007108F3007008F200A9280130F007003090
:10215000F13D70088600710887000108031DB12851
:10216000B228A52872087002F0007308713BF100D4
:10217000080001302700A0070030A13D0030A23D3B
:102180000030A33D26006308031DC728C828D328B4
:102190000130F0007008DB075B08031DD028D12850
:1021A000D328FF30DB000800F20080302100480215
:1021B0000318DB28DC28EE284808703EF000F10107
:1021C0002330F13D70088600710887007208810095
:1021D0000130F0007008C8070130EF280030080017
:1021E0007108F7007008F600FF2876088600770867
:1021F0008700720881000130F6070030F73D01309A
:10220000F4020030F53B740A031D0A29750A031D08
:102210000A290B29F52808003D001215EF3021008E
:10222000B60036083D0090058E142600E301E30A4F
:10223000DB0175302100B0000030B1000030B20089
:10224000B3000030B400B50093314A239131080047
:10225000F401F501701C2D292E2932297208F4078A
:102260007308F53D0130F235F30D890B3329013048
:10227000F136F00C890B382970087104031D4129CF
:1022800042292A297508F1007408F0000800260088
:10229000E30174302100B0000030B1000030B20022
:1022A000B3000030B400B50093314A2391313D00B2
:1022B0008E1012116129FB302100B60036083D0056
:1022C00090051019642965295B292600DB010800A7
:1022D000083023009F0090309D0024309E0067301E
:1022E0009B009C010030F0000030F1009F31E82796
:1022F00091310030F0000030F1009F31EE27913134
:102300000030F0000030F1009F31E22791312600CB
:10231000DA0108007108F9007008F8007908F50082
:102320007808F400F80A0319F90A74088600750899
:1023300087007308F7007208F600F20A0319F30A1F
:1023400076088400770885000008C03F8908031DCF
:10235000AA29AB298E2908002600BF01C0011E3022
:10236000F70003309131D0219131F0015230F1006A
:102370002130F2004030F30003308B3123239131C0
:1023800071082600C2007008C100153020009700B7
:10239000A0309600111018142600D201D20A0800AD
:1023A000FC00771DD429D529DA29F0017C08883171
:1023B00000209131F71CDD29DE29E429F001F00A23
:1023C0007C088831002091317C08983EF800F901A2
:1023D0000E30F93D7808FA007908FB007A0886008B
:1023E0007B088700770881000800F10021008E112A
:1023F000F201122AF11FFD29FE29012A22008E1561
:10240000032A22008E110E150310F10D0430890BE2
:10241000072A22000E110430890B0C2A0130F0002B
:102420007008F20726006E087202031C182A192A87
:10243000FA290430890B1A2A080021008E11F401B0
:102440003D2AF21F242A252A282A22008E152A2A0C
:1024500022008E110E150130F035F10DF20D890BB1
:102460002C2A0430890B322A22000E110430890BE9
:10247000372A0130F3007308F40726006D08740250
:10248000031C432A442A212A0800F8007108F60098
:102490007008F5007808F900602A7508860076084B
:1024A00087000108F7000130F5070030F63D790894
:1024B00086008701770881000130F4007408F9076D
:1024C0000130F2020030F33B720A031D6B2A730ADB
:1024D000031D6B2A6C2A4D2A08000030F6000030DC
:1024E000F7000030F800701C762A772A7D2A7308DE
:1024F000F6077408F73D7508F83D0130F335F40D23
:10250000F50D890B7E2A0130F236F10CF00C890BA7
:10251000842A720871047004031D8F2A902A732A7A
:102520007608F0007708F1007808F2000800033020
:1025300020006306031D9D2A9E2AC02AA230260081
:10254000B0000230B10000302000670208300319EB
:102550006602031CAC2AAD2AB22A0830F000003013
:10256000F100B62A6708F1006608F000710826003D
:10257000B4007008B3002730B5000A30B600B217B7
:1025800008003D00181CC52AC62AE72A2100490870
:102590008600870180300106031DCF2AD02AE52A54
:1025A0002600200886002108870084300106031DCC
:1025B000DA2ADB2AE52A21004908860087010C3047
:1025C000810049088600870181173D001810DF301F
:1025D000F000700890050800083027003202031C44
:1025E000F22AF32A172B2F08C1002E08C0002D084D
:1025F000BF002C08BE002100C8012600D901270019
:102600002F08031D0D2B2E08031D0D2BB1302C029E
:1026100004302D3B03180D2B0E2B132B2600D40159
:10262000D40AEF01172B2600D401EF01EF0A0800AE
:102630002300B210B21132103208260068060319C6
:10264000222B232B492B470848040319282B292B1D
:10265000312B4708860048088700811B302B312B1F
:10266000492B23003208C000F001F00AB830F10015
:102670000130F2000A30F30001308B312323933113
:1026800071082600C8007008C70023003208260021
:10269000E8000800592B9531202593319131AC2168
:1026A0009331812B8B31AD2393318D31592593316A
:1026B000812B21003108003A0319622B7F3A03195C
:1026C0007C2B812B3008013A03194B2B033A031959
:1026D000812B013A0319522B063A0319812B773AC1
:1026E0000319812B013A0319812B073A0319812B16
:1026F000013A0319812B812B3008FF3A0319812BF2
:10270000812B08000030F7000030F8000030F9009D
:1027100021008E15FA01AF2B22000E150130F7357E
:10272000F80DF90D890B8F2B0430890B952B2000A8
:102730000E0CF300F30C730C0139F400F501F601F3
:102740007408F7047508F8047608F90422000E11DD
:102750000430890BA92B0130F3007308FA07260017
:102760006D087A02031CB52BB62B8C2B7708F00072
:102770007808F1007908F20008009F31DD279331D5
:1027800026006E08F4009C30F300D730890BC62B6E
:10279000F30BC62B000022008E1021008E108E1528
:1027A00022000E1121000E119C30F300D730890B4E
:1027B000D72BF30BD72B000008302600EE004D304E
:1027C0009131F521933143309131F52193314830E6
:1027D0009131F521933150309131F52193314E30C3
:1027E000F300EB30890BF22BF30BF22B0000740893
:1027F0002600EE000800023023003106031D012CE4
:10280000022C062C8031662093313A2CB10126002F
:102810006108031D0C2C0D2C392C21004608013EAB
:10282000B6000030473DB7003608860037088700FD
:10283000083081006030B6000030B700FF30360548
:10284000B8007F303705B900460886004708870082
:1028500042313808C03F3908C13F46088600470862
:1028600087000C30810046088600470887008117E2
:102870003A2CE10108000630F90023009F19412C91
:10288000422C462C1E1D452C462C482C0430F900A9
:102890009F1D4B2C4C2C522C1E1D4F2C502C522C5F
:1028A0000230F90021002608F0002708F10028086E
:1028B000F200F3010030A9006C30AA00DC30AB005C
:1028C0000230AC00790A682CAC37AB0CAA0CA90C0E
:1028D000890B642C2C08F7002B08F6002A08F50059
:1028E0002908F4008C31392494317008FF3E21000E
:1028F000AD00FF30713DAE002D0823009B0021008C
:102900002E0823009C00080006302100A9002300A7
:102910009F198B2C8C2C902C1E1D8F2C902C932C63
:1029200004302100A90023009F1D972C982C9F2C78
:102930001E1D9B2C9C2C9F2C02302100A9002300E3
:102940001B08013E2100A300003023001C3D210094
:10295000A4002308A5002408A600A701A801290AAD
:10296000B52CA535A60DA70DA80D890BB12C2808EF
:10297000F3002708F2002608F1002508F0000230D5
:10298000F700DC30F6006C30F5000030F4009631D2
:102990006E26943172082100A2007108A10070080F
:1029A000A00008002D302600E00021004C08FD3971
:1029B000031DDB2CDC2C132D4C363F39BE000130BF
:1029C000BE35FF3E031DE02C3E35203EC9004908C0
:1029D000C600C70104304606C60000304706C700DF
:1029E000490886008701010C890C0F390D3A031D37
:1029F000FA2CFB2C0F2D4908023E86008701403F30
:102A0000F000413FF1000830F2000030F300603088
:102A10009231452294319531C22594311F2D933145
:102A2000FB2394311F2DFD304C05BE0004303E06C3
:102A3000031D1B2D1C2D1F2D8C31C9249431080022
:102A400000302700C1000030C0004B30BF00003014
:102A5000BE00C201C3010830C4002300B4011A3013
:102A6000F70001309131D02195311E30F70002304E
:102A70009131D0219531F001C030F1002030F200C9
:102A80004030F30002308B3123239531710826004A
:102A9000CC007008CB00C901CA01C701C8012300DE
:102AA000B20132080319552D572D0130582D003031
:102AB0002600E800A1302300B8002030B900BA0198
:102AC000BB01BC01BD01C001C1010230BE0000302C
:102AD000BF009331182395312100CB010800FD0080
:102AE0002300B40126004B084C040319782D792DDE
:102AF000812D4B0886004C088700811B802D812D7D
:102B0000BF2D4B0886004C08870041317B0801022D
:102B100003188B2D8C2D932D4B0886004C088700B5
:102B200041310108FB002300B401A92D34087D07C1
:102B3000FC007C088600043087003408C03E840016
:102B400085012030853D000881000130FC007C08B3
:102B5000B4077B083402031CAE2DAF2D962DF00177
:102B6000C030F1002030F2004030F30002308B31F1
:102B70002323953171082600CC007008CB00230078
:102B8000340808002600E6012300B0012600DD011C
:102B9000DC01E1012300B1017F302100BD002600EE
:102BA000200886002108870021003D0881050430A7
:102BB00026002006A00000302106A1007F30210061
:102BC000BD002600200886002108870021003D085E
:102BD0008105043026002006A00000302106A10057
:102BE0007F302100BD0046088600470887003D0869
:102BF0008105C301C401C5012600B201B301B401BE
:102C000097312427953103302100B0000030B10006
:102C10000030B200B3000030B400B50093314A2355
:102C200095318D31EE259531080003302000630683
:102C3000031D1B2E1C2E6D2E5D2E23003708250034
:102C4000A2009031182096312500A30094318424ED
:102C5000963121002008AD002108AE002208AF0007
:102C60002D082500A40021002D08AA002E08AB0085
:102C70002F08AC000830AC36AB0CAA0C890B3B2EED
:102C80002A082500A50021002D08AA002E08AB0067
:102C90002F08AC001030AC36AB0CAA0C890B4B2EB5
:102CA0002A082500A60020000C082500A700A8017E
:102CB00020000E082500A900622E6208003A0319C0
:102CC0001D2E6D2EA2302100C1000230C20008303E
:102CD000C4000030C5008130C30008000030FC0093
:102CE0000030FB000030FA000030F9007308720475
:102CF0007104700403197D2E7E2EBF2EFD01FD0A86
:102D00008C2E0130F035F10DF20DF30D890B822E72
:102D10000130F8007808FD07F31F8F2E902E812ECA
:102D20000130F935FA0DFB0DFC0D890B912E73085E
:102D30007702031DA52E72087602031DA52E7108C9
:102D40007502031DA52E70087402031CA82EA92E5F
:102D5000B22E7008F4027108F53B7208F63B730856
:102D6000F73B79140130F336F20CF10CF00C890BBF
:102D7000B32E0130FD02031DBE2EBF2E902E7C0807
:102D8000F3007B08F2007A08F1007908F0000800EF
:102D90002000E801E9010B2F2100C317260064037E
:102DA000031DD32ED42E172F2000E814172F210037
:102DB000C317172F2100C3172000E41BE02EE12EBC
:102DC000ED2E64080F390907283E8600033087007E
:102DD000403FF000413FF100F82E64080F39090729
:102DE000203E860003308700403FF000413FF10065
:102DF0007008860071088700811FFF2E002F172F93
:102E00007008860071088700011D072F082F172FF3
:102E10000130E800172F60081F39003A0319CC2E43
:102E2000013A0319D72E033A0319DA2E172F21007E
:102E3000C31F1B2F1C2F232F6830C1000030C2007E
:102E400043140230C40008002000600E890C0339CE
:102E5000003A03192C2F2D2F6E2F912F2100C3170D
:102E60000830CA00912F8831B5209731912F8A31CF
:102E7000A5229731912FB6302100C1000130C20048
:102E80004314C401C40AC317912F9631C826973141
:102E9000912F863147269731912F6408B53E210046
:102EA000C1000130C200402F2100C3172000640878
:102EB000B53E86000130870062088100912F023004
:102EC0002100B0000030B1000030B200B30000308B
:102ED000B400B50093314A239731912F6108003A2D
:102EE0000319452F013A0319492F023A0319492FB3
:102EF000063A03192E2F033A0319332F013A031907
:102F00005F2F0F3A03193B2F013A0319372F033A6A
:102F100003194D2F013A0319542F073A0319912F22
:102F2000912F08002600DD01DC010230230031066C
:102F3000031D9B2F9C2FC82F21004608013EF30044
:102F40000030473DF400730886007408870008309D
:102F500081006830F3000030F400FF307305F500A5
:102F60007F307405F6004608860047088700423126
:102F70007508C03F7608C13F4608860047088700AD
:102F80004830810046088600470887008117FF2FD8
:102F90002100450820006702031DD22F21004408AC
:102FA000200066020318D52FD62FDD2F67082100D9
:102FB000C500200066082100C400883142209731F6
:102FC0006830F3000030F400FF307305F5007F3007
:102FD0007405F6002600200886002108870042318B
:102FE0007508C03F7608C13F200886002108870089
:102FF00048308100200886002108870081170800DA
:103000000934023463340034033401340034C034EE
:1030100032340934043400340034013402340234CC
:1030200001340034053424340034103401340434C1
:103030002434023402340534243406340034013498
:103040000534243401340034013407340534813428
:1030500003340A34003402340934043401340034B3
:1030600002340A34003400340034073405340234A6
:1030700002344034003400340734053482340234DE
:10308000403400340034093404340234003402344F
:103090000334003400340034093421341134013451
:1030A00000340134223425340034073405348334A9
:1030B000033440340034013407340534033403341A
:1030C000403400340134343403344D340034693432
:1030D000003463340034723400346F3400346334A9
:1030E00000346834003469340034703400342034DF
:1030F00000345434003465340034633400346834AC
:1031000000346E3400346F3400346C3400346F3467
:1031100000346734003479340034203400344934C6
:1031200000346E340034633400342E3400340434FC
:103130000334093404340A347B3422346134703467
:10314000703422343A3422346D3469346E34693444
:103150004634503447344134203462346F3461345F
:103160007234643422342C3422345534533442348F
:103170004634573422343A3422340034063400348E
:10318000FF3409340134A1340134153400342634B9
:10319000FF34003475340834953440341934013424
:1031A0002934403481340034193401342934403412
:1031B00091340034953408341934013429340834F6
:1031C000B1340034C0341E3403346D3400346934F7
:1031D00000346E34003469340034463400345034E2
:1031E0000034473400344134003420340034623435
:1031F00000346F3400346134003472340034643489
:103200000034123401340034023400340034003409
:103210000834D834043457340034003401340134D1
:1032200002340034013422342C3422346D346534B9
:10323000743461345F3463346D34643422343A342A
:1032400000349734983463349834E33498347D34BC
:083250000A3400340034983404
:103FB200083021009700080021000E158E158E147E
:103FC200080071082700A9007008A80008007108FD
:103FD2002600C6007008C500080071082700AB0063
:103FE2007008AA0008006400800101310130FE025D
:0E3FF2000030FF3B7F087E04031DF52F0034D6
:020000040001F9
:08000000FF3FFF3FFF3FFF3F00
:04000E00EC2FCF3FC5
:00000001FF
